:020000040800F2
:10000000D8570020A1010008071C00084111000872
:10001000051C0008290C00087934000800000000C5
:10002000000000000000000000000000852D000816
:10003000B90D000800000000412A0008B12F000897
:10004000BB010008BB010008BB010008BB010008A0
:10005000BB010008BB010008BB010008BB01000890
:10006000BB010008BB010008BB010008BB01000880
:10007000BB010008BB010008BB010008BB01000870
:10008000BB010008BB010008BB010008BB01000860
:10009000BB010008BB010008BB010008BB01000850
:1000A000BB010008BB010008BB010008BB01000840
:1000B00011300008BB010008BB010008BB010008AB
:1000C000BB010008BB010008BB010008BB01000820
:1000D000BB01000829320008BB0100088D3200086E
:1000E000BB010008BB010008BB010008BB01000800
:1000F000BB010008BB010008BB010008BB010008F0
:10010000BB010008BB010008BB010008BB010008DF
:10011000BB010008BB010008BB010008BB010008CF
:10012000BB010008BB010008BB010008BB010008BF
:10013000BB010008BB010008BB010008BB010008AF
:10014000BB010008BB010008BB010008BB0100089F
:10015000BB010008BB010008BB010008BB0100088F
:10016000BB010008BB010008BB010008BB0100087F
:10017000BB010008BB010008BB010008BB0100086F
:10018000BB010008BB010008DFF810D000F074FBD1
:100190000048004719530008AFF30080D8570020EB
:1001A0000648804706480047FEE7FEE7FEE7FEE711
:1001B000FEE7FEE7FEE7FEE7FEE7FEE7B52F0008F5
:1001C00089010008A0F14101192900D820307047A9
:1001D00040EA01039B0703D009E008C9121F08C0C9
:1001E000042AFAD203E011F8013B00F8013B521E49
:1001F000F9D27047D2B201E000F8012B491EFBD2C0
:1002000070470022F6E710B513460A460446194621
:10021000FFF7F0FF204610BD421E12F8013F002BF1
:10022000FBD111F8013B02F8013B002BF9D17047DB
:1002300030B505462A460B4612F8010B13F8014B60
:1002400008B1A042F8D01CB1002802D06D1CF1E723
:10025000284630BDCAB2401E10F8011F8A4202D0A3
:100260000029F9D100207047421C10F8011B002919
:10027000FBD1801A704710B5044600E0401C03789B
:10028000002BFBD100E0401C521E04D311F8013BAF
:100290000370002BF7D100210170204610BD0346EA
:1002A00011F8012B00F8012B002AF9D118467047EC
:1002B00030B505460020034600E05B1C934205D2A2
:1002C000EC5CC85C201A01D1002CF6D130BD2DE9C0
:1002D000FE4F804681EA0300C00F0C46009021F0DB
:1002E000004123F00045B8EB0200A94105D2404689
:1002F000214690461C460B46024623F00040104320
:1003000047D0270DC7F30A00C3F30A510290401AE1
:10031000019040286BDAC3F3130040F4801B00986F
:10032000924620B10023D2EB030A63EB0B0B01983A
:100330005946C0F14002504600F0E1F906460D462C
:1003400050465946019A00F0F9F910EB0800614156
:10035000002487EA115284EAE7731A4340D0009AD6
:1003600062B3019A012A4FEA075215DC001B61EBC8
:1003700002014FF0004202EA0752CDE90042001CA0
:1003800041F5801132462B4600F0F9F903B0BDE883
:10039000F08F40462146F9E7001B61EB0201001C8B
:1003A00041F5801300185B412018A2F5001747EBB8
:1003B000030140EAD570B6196D4111E06D084FEAAE
:1003C000360645EAC0754FEA0752001B61EB020191
:1003D000001C41F5801149084FEA300000195141D5
:1003E00032462B4603B0BDE8F04F00F0B9B9009893
:1003F000012240000023D0EB020263EBE07300987F
:1004000021464FEAE074B8EB000061EB0401E9E734
:1004100083F000435BE781F0004158E72DE9FE4F90
:1004200081EA030404F0004421F0004100944FF0FD
:10043000000B23F0004350EA01045ED052EA0304AB
:100440005BD0C3F30A54C1F30A552C44A4F2F3342D
:100450000194A0FB0254C1F3130141F48011C3F3D2
:10046000130343F4801301FB024400FB034E840A90
:10047000970A44EA815447EA8357A4FB0768029528
:100480008D0A05FB07854FEA932C04FB0C542705C6
:10049000029D4FEA065847EA1637B5EB08056EEBA2
:1004A000070C870E920E47EA811742EA8312A7FBD8
:1004B0000201B6EB0B0164EB00042B0D43EA0C3395
:1004C0005E1844EB1C50DA465146E7FB0201C5F3C7
:1004D00013044FEA0B3343EA14534FEA0432019CEE
:1004E00043EA0603A4F10C040294009CCDE900B495
:1004F00000F045F903B0BDE8F08F00200146F9E7B0
:100500002DE9F04D81EA030404F0004B21F0004591
:1005100014464FF0000A23F0004150EA050220D0B3
:1005200054EA01021DD0C5F30A570246C5F313036E
:10053000C1F31300C1F30A5640F4801543F480134D
:10054000A7EB0608101BD64608F2FD3873EB050032
:1005500002D308F1010801E092185B41B8F1000FE5
:1005600003DA00200146BDE8F08D00204FF4801131
:10057000064684460EE0171B73EB050705D3121BD6
:1005800063EB050306434CEA010C49084FEA3000CF
:1005900092185B4150EA0107EDD152EA030012D0F4
:1005A00082EA040083EA0501084305D0101BAB4131
:1005B00006D20122002306E000224FF0004302E0B1
:1005C0006FF0010253101AEB06004CEB085110EBD0
:1005D0000A0041EB0B01BDE8F04D00F0C1B80EB5CB
:1005E000C10F80EAE0700844CA07002140F233439B
:1005F0008DE80E000A460B4600F0C1F803B000BDBE
:1006000070B5C1F30A5201F000450024C1F3130193
:1006100040F2FF3341F480119A4201DA002070BDAC
:1006200040F233439A42A2F2334203DC524200F0DA
:1006300075F800E090402C43F1D0404270BD0000BE
:1006400030B5041E71F1000404DB4FF00044404259
:1006500064EB0101141E73F1000405DB1C464FF02E
:100660000043524263EB0403994208BF904230BDFD
:1006700030B50B46014600202022012409E021FA72
:1006800002F59D4205D303FA02F5491B04FA02F56F
:100690002844151EA2F10102F1DC30BD2DE9F05F06
:1006A0000546002092469B468846064681464024E1
:1006B0001BE0284641464746224600F02FF85346A5
:1006C0005A46C01A914110D311461846224600F0EE
:1006D00016F82D1A67EB01084F462246012000212B
:1006E00000F00DF817EB00094E41201EA4F10104A3
:1006F000DFDC484631462A464346BDE8F09F202AC3
:1007000004DB203A00FA02F1002070479140C2F168
:10071000200320FA03F3194390407047202A04DB9A
:10072000203A21FA02F00021704721FA02F3D0406A
:10073000C2F120029140084319467047202A06DB87
:10074000CB17203A41FA02F043EAE07306E041FA9F
:1007500002F3D040C2F1200291400843194670478D
:1007600010B5141E73F1000408DA401C41F10001B9
:1007700092185B411A4301D120F0010010BD2DE910
:10078000F04D92469B4611B1B1FA81F202E0B0FA07
:1007900080F220329046FFF7B2FF04460F4640EA4F
:1007A0000A0041EA0B0153465A46084313D011464A
:1007B00053EA010019D0C8F140025046FFF7AEFFDE
:1007C00005460E46504659464246FFF798FF0843F5
:1007D00005D0012004E020463946BDE8F08D002018
:1007E000054346EAE0762C4337430A986305E40A5A
:1007F000A0EB08000022FD0A44EA47540A3002D563
:1008000000200146E9E7010510196941DDE90845C5
:1008100000196941BDE8F04DA2E770B521F0004331
:1008200003430CD0C1F30A550024D5EB040564EB57
:100830000403D617AD1AB34102DB0020014670BD98
:10084000201841EB025170BDC1F30A52C1F31301EC
:1008500040F2FF3341F480119A4202DA002001464F
:10086000704740F233439A42A2F2334202DC5242D2
:10087000FFF754BFFFF743BF064C074D06E0E068A3
:1008800040F0010394E8070098471034AC42F6D3D7
:10089000FFF77EFCEC8800080C8900082DE9F04D7C
:1008A00000231A461B1A8A4103DB00200146BDE8DB
:1008B000F08DC1F30A52C1F3130141F480154FF0DA
:1008C000000BD10702D100186D41521E00270446CB
:1008D00040F2FF11384601EB620A3E46804602466E
:1008E00000204FF48011FFF719FFC2197141BB18A6
:1008F00046EB0100B4EB030C75EB000C04D3E41AD7
:1009000065EB000517460E46241908F101006D41FC
:1009100080463428E3DDF91946EB0600091BA8419F
:1009200003D24FF0FF32134601E0002213461BEBC7
:10093000070046EB0A51BDE8F04DFFF711BF00007C
:100940002DE9F0479CB0082004F074FD494D286063
:1009500010B949A002F0D8FE2868002401210460E3
:100960004460022002F070F80121042002F06CF8CB
:100970004FF480780121404602F07EF8012188057D
:1009800002F062F803268DF8586015968DF85B40EA
:1009900015A93D4800F064FB062015908DF85860BD
:1009A0008DF85B4015A9394800F05AFB4FF48036AA
:1009B000CDE91864179417A81A9400F077F801206D
:1009C0008DF84000DFF8C8900F948DF8410004279F
:1009D000119413948DF850700FA9484600F090F8C8
:1009E000072301220821484600F0B0F8072302221D
:1009F0000921484600F0AAF8072303220B214846A4
:100A000000F0A4F8072304220C21484600F09EF8C9
:100A1000DFF880A0504600F013F91D4802A94C30C1
:100A2000CDE90040286881E89100B011CDE905408A
:100A3000400007908000CDE90808CDE90A646946C6
:100A4000504600F08FF90121504600F0EEF80121E8
:100A5000484600F041F80121484600F047F80121DE
:100A6000484600F019F8484600F0AAF81CB0BDE866
:100A7000F087000044000020E58886E9858DE5A424
:100A8000B1E8B4A5000000000004024000080240E4
:100A900000200140106402400029816802D041F02A
:100AA000010101E021F0010181607047084B10B5A0
:100AB000D3F8042307490A40D0E900142143D0E9C0
:100AC0000240044321431143C3F8041310BD000046
:100AD00000200140E030FCFF0029816802D041F491
:100AE000807101E021F48071816070470029816884
:100AF00002D041F4007101E021F40071816070477F
:100B000030B542680F4B0C791A400B6842EA042258
:100B10001343436082680C4B4D791A40D1E903437B
:100B200023438C6844EA4504234313438360C26A29
:100B3000097D22F47002491EC9B242EA0151C16224
:100B400030BD0000FFFEFFFCFDF7FFC070B50726BB
:100B500009290AD9C568A1F10A0404EB4404A64096
:100B6000B543A3401D43C56007E0056901EB41049F
:100B7000A640B543A3401D4305611F23072A09D2A0
:100B8000446B521E02EB820293409C4391400C4303
:100B9000446370BD0D2A09D2046BD21F02EB82029E
:100BA00093409C4391400C43046370BDC46A0D3A6A
:100BB00002EB820293409C4391400C43C46270BD9F
:100BC000816841F080418160704700001CB50121BF
:100BD000022001F051FF2020009001208DF8040038
:100BE00000208DF806008DF8070002208DF8050022
:100BF0006946034800F034FA002000F003F81CBDF9
:100C00000004024010B50446012807D0002220212C
:100C1000034800F07CFA0348047010BD0122F6E797
:100C20000004024088000020FEE70029016802D08D
:100C300041F0010101E021F0010101607047000075
:100C40002DE9F043016821F00101016000210160FC
:100C500041608160C1600161212141613C493C4AA0
:100C60003D251039904202D18D60BDE8F083384AAD
:100C70004FF474661832904201D18E60F5E7344A21
:100C80004FF474173032904201D18F60EDE7304A53
:100C90004FF0746C4832904202D1C1F808C0E4E7CA
:100CA0002B4B2C4A6033984201D1CA60DDE7284CB7
:100CB000294B7834A04201D1CB60D6E7DFF8908091
:100CC000264C08F19008404501D1CC60CDE7DFF813
:100CD00080804FF03D5908F1A808404502D1C1F885
:100CE0000C90C2E71E49DFF878800839404501D1F1
:100CF0000D60BAE71A4D1835A84201D10E60B4E76D
:100D0000174D3035A84201D10F60AEE7144D48357C
:100D1000A84202D1C1F800C0A7E7114D10496035C3
:100D2000091FA84201D10A609FE70D4A783290421C
:100D300001D10B6099E70A4A9032904201D10C60D0
:100D400093E7074AA83290428FD1C1F800908CE710
:100D5000106002403D000020400F002000003D20B8
:100D60001064024030B50368124ACC6813400A6828
:100D70002243D1E905452C432243CC6922430C6A26
:100D800022434C6A22438C6A22434C6B22438C6B75
:100D900022431A430260426922F00703D1E90B247F
:100DA00022431A4342610A6942604A688260896844
:100DB000C16030BD3F801CF07047000010B54FF49B
:100DC00080610348FFF71DFA02490020088010BD2A
:100DD000FC0000203400002010B5044600F030F97B
:100DE00078B90C490CA002F08FFC11A10948FFF75B
:100DF0001FFA30B13A21FFF72DFA002800D0401C2D
:100E000010BD052004F02AF92046641EA4B2E5D2E4
:100E100010BD0000FC00002052617720455350387F
:100E200032363620646174613A2025730D0A000061
:100E30004950442C0000000010B5FFF7BFFF24A06C
:100E400002F062FC4FF4FA7402E0204604F006F966
:100E500021A122A000F0ACF80028F6D121A002F0D8
:100E600053FC02E0204604F0F9F81BA120A000F09A
:100E70009FF80028F6D122A002F046FC02E02046AE
:100E800004F0ECF814A122A000F092F80028F6D1AA
:100E900023A002F039FC02E0204604F0DFF823A191
:100EA00024A000F085F80028F6D129A002F02CFC3F
:100EB00002E0204604F0D2F829A12BA000F078F837
:100EC0000028F6D1BDE8104033A002F01DBC0000A0
:100ED000312E2041540D0A004F4B000041540D0AA1
:100EE00000000000322E2043574D4F44450D0A00AC
:100EF00041542B43574D4F44453D310D0A000000EE
:100F0000332E2041542B4357444843500D0A0000D0
:100F100041542B4357444843503D312C310D0A0076
:100F2000342E2043574A41500D0A0000474F5420A9
:100F30004950000041542B43574A41503D2232351D
:100F400038222C223132333435363738220D0A001C
:100F5000352E2043495053544152540D0A0000008D
:100F6000434F4E4E4543540041542B434950535434
:100F70004152543D22544350222C226D717474739B
:100F80002E6865636C6F7564732E636F6D222C31F0
:100F90003838330D0A000000362E204553503832C1
:100FA000363620496E6974204F4B0D0A0000000050
:100FB00070B50D460646C824FFF756F982B2314691
:100FC0000B4802F05AFA0EE000F03AF840B9294610
:100FD0000848FFF72DF918B1FFF7F0FE002070BDAB
:100FE0000A2004F03BF8641EE4B2EDD2012070BD8B
:100FF00000480040FC00002030B589B00C46054692
:10100000FFF7DCFE224608A1684602F0A7FB0AA112
:101010006846FFF7CDFF002804D12246294607483D
:1010200002F02BFA09B030BD41542B4349505345CF
:101030004E443D25640D0A003E000000004800407B
:101040000649088828B14A88904204D100200880C7
:101050007047012070474880FBE700003400002003
:10106000F0B5002201274FF0030C0B6807FA02F5D8
:101070002B40AB422CD1066853000CFA03F4A64374
:1010800006600E79D0F800E09E4046EA0E06066043
:101090000E79012E01D0022E12D18668A6438660F9
:1010A0004E79D0F808E09E4046EA0E068660466813
:1010B000AE43466045688E799640B6B2354345608A
:1010C000C568A543C560CC799C40C3681C43C46017
:1010D000521C102AC9D3F0BD4B07DB0E9A40C90839
:1010E00010B500EB8100016A0F249C40A14301620E
:1010F000016A1143016210BD0246002012690A42D2
:1011000000D00120704741837047018370470AB1C6
:10111000018370474183704710B5084CA0780028C0
:101120000AD00020FFF758FE206118B101F0C6F97F
:10113000FFF744FE0020A07010BD0000D400002086
:10114000FEE7000010B504F0B5F801F0A1FB4FF484
:10115000E134204605F098F8204605F02FF800F01D
:101160003BF8FFF7EDFB00F0A9FD00F089FDFFF76C
:101170002DFD04F05BF800F04BF900F04DF900F0A4
:1011800049F901F05EFC01F027FD01F0CDFDBDE85D
:10119000104001A002F0B8BA204861726477617211
:1011A0006520696E6974204F4B0D0A0070B5094CBB
:1011B0000025C4F8A05204F5287401F0C3FC656052
:1011C000022003F065FF01202060022003F060FF91
:1011D000256070BD008040421CB50121022001F055
:1011E0004BFC4FF44070012400908DF80440002027
:1011F0008DF8060002208DF8050069460448FFF7C7
:101200002FFF0448C0F8A042C0F8A4421CBD000053
:10121000000402400080404270B5094C0026C4F82A
:10122000A06204F5287401F08DFC012565600220A0
:1012300003F02EFF2560022003F02AFF266070BD18
:1012400000804042094910B50120C1F8BC02084C99
:10125000C4F8A802052004F52A7403F019FF002041
:101260002060BDE81040052003F012BF008040421E
:101270000080414270B509480124C0F8BC42084DC5
:101280000020C5F8A802052005F52A7503F000FF27
:101290002C60BDE87040052003F0FABE008040429B
:1012A0000080414210B5064C0120C4F8BC02052064
:1012B00004F52F7403F0ECFE0020206010BD000048
:1012C000008040422DE9F0478146002401F028FCCF
:1012D0000025124E2F464FF00108C6F8A0720220DA
:1012E00003F0D6FEC6F8A0826006040ED6F82402EB
:1012F00008B1641CE4B2012003F0CAFE6D1CEDB21B
:10130000082DEAD3B9F1000F04D0FFF74FFF2046B4
:10131000BDE8F087FFF780FFF9E70000008040425A
:101320002DE9F041054601F00DFC0F4E0027C6F8EF
:10133000A0723C464FF00108E809C6F8A40268060E
:10134000050E022003F0A4FEC6F8A082022003F0DE
:101350009FFEC6F8A072022003F09AFE641CE4B25D
:10136000082CE9D3BDE8F0810080404270B501F05F
:10137000E9FB094C0120C4F8A402C4F8A00204202F
:1013800004F5287403F084FE00256560042003F052
:101390007FFE256070BD00000080404210B501F066
:1013A000D1FB094C0020C4F8A002C4F8A402042018
:1013B00004F5287403F06CFE012020606060BDE835
:1013C0001040042003F064BE0080404270B5002449
:1013D00001F0A6FB0D4D0126C5F8A462304603F0CE
:1013E00057FEC5F8A062012003F052FE07E0641C1E
:1013F000E4B2FA2C03D9FFF7D1FF012070BDD5F874
:1014000024020028F3D1C5F8A00270BD008040423C
:10141000FFF796BAFFF794BAFFF792BA10B50446F1
:10142000007B012802D1206803F092FE002020609A
:101430006060A060207310BD0246012002F07F03AF
:101440000B70D20908D043F08003401C01F8013B27
:101450000428F3DD4FF0FF3070472DE9F0410446DA
:10146000002500680F462E4610B10220207315E0BB
:1014700001202073084603F0DDFF2060002808D01B
:10148000C4E9016702E0206846556D1CA068A842C7
:10149000F9D8BDE8F081206846556D1CA068A842C7
:1014A000F9D866608842F4D22660F2E72DE9FF5F42
:1014B0009A46934600251046DDF844900E9F139CF3
:1014C000FEF7D2FE06B2BBF1000F1FD006F11100ED
:1014D0001FFA80F807B10225109868B145F004059D
:1014E000FEF7C2FEC7B24846FEF7BEFEC11901EBC9
:1014F0000800001D1FFA80F80F9870B1012807D06E
:10150000022808D0022004B0BDE8F09F0120FAE7CD
:1015100045F00C0501E045F01405129808B145F0BE
:101520002405009860B3019850B345F0C0050098B9
:10153000FEF79AFE07460198FEF796FE391801EB72
:101540000800001D87B239462046FFF786FF206855
:10155000C0B13946FEF755FED4E90030411C1022D7
:1015600061601A54D4E900010144781FFFF764FF59
:1015700000B2002808DA2046FFF750FF0520C2E736
:101580000320C0E70420BEE7616823680844411CCB
:10159000616000221A54D4E90030421C04216260C8
:1015A0001954D4E90070421C4D2362603B54D4E9C5
:1015B0000070421C626051233B54D4E90030471C48
:1015C000542267601A54D4E90070431C63603A5493
:1015D000D4E90030421C62601954D4E90020411C57
:1015E00061601554D4E90030411C4FEA1A22616051
:1015F0001A54D4E90030421C626003F800A0D4E918
:101600000030411C320A61601A54D4E90020411CA8
:1016100061601654D4E90001084432465946FEF789
:101620002AFE606830446060680736D5B9F1000F63
:1016300001D10FF2D8091098FEF716FE86B2D4E950
:101640000030411C320A61601A54D4E90020411C68
:1016500061601654D4E90001084432461099FEF73F
:101660000AFE6068304460604846FEF7FDFD86B2C1
:10167000D4E90030411C320A61601A54D4E90020D8
:10168000411C61601654D4E90001084432464946C1
:10169000FEF7F1FD606830446060280618D50098B8
:1016A000FEF7E2FD86B2D4E90030411C320A6160E7
:1016B0001A54D4E90020411C61601654D4E9000199
:1016C000084432460099FEF7D6FD606830446060F9
:1016D000680618D50198FEF7C7FD85B2D4E9003039
:1016E000411C2A0A61601A54D4E90020411C61603F
:1016F0001554D4E9000108442A460199FEF7BBFDC0
:101700006068284460600020FDE6000000000000E2
:101710002DE9FF4F81B04FF000059046119C0F99C5
:101720009A465FEA000BA9462A4608D1012005B077
:10173000BDE8F08F232816D02B2814D06D1C0298FA
:10174000405D0028F6D142F0300709B147F00107AB
:1017500005EB0A060E98B61C68B1012805D00228D0
:1017600006D00320E3E70220E1E747F0020701E0AB
:1017700047F00407B61CB8F1000F37D098F8000006
:10178000022806D0711D2046FFF767FE2068B8B119
:1017900032E0002018F80010401C7D29FAD100F139
:1017A0000409AAEB0900311A00912046C91CFFF771
:1017B00054FE206810B10099C91C03E02820B6E748
:1017C0002920B4E7FEF71DFDD4E90020411C61602B
:1017D0001754D4E9000101443046FFF72DFE0028DC
:1017E0000EDA2046FFF71AFE0520A0E7711D2046FD
:1017F000FFF733FE206808B1711DE3E72A2096E762
:10180000616823680844411C2A0A61601A54D4E9BB
:101810000020411C61601554D4E9000108442A46A7
:101820000299FEF728FD6068284460600E9959B15E
:101830002368411C4FEA1B2261601A54D4E900302E
:10184000421C626003F800B0B8F1000F0ED098F8A7
:1018500000000228D4E90001084409D0524641465C
:10186000FEF7B6FC616801EB0A00606000205EE7ED
:101870004A464146FEF7ACFC616801EB0900F4E71B
:1018800030B591B01546149C034600910AA2302150
:1018900004A801F049FF01200021CDE90204CDE9AF
:1018A00000010A462B4604A90A20FFF731FF002851
:1018B00000D0012011B030BD247379732F25732F10
:1018C00025732F7468696E672F70726F70657274FC
:1018D000792F706F737400002DE9F0474FF0000707
:1018E000089C984616468A465FEA00093D460AD19A
:1018F0000120BDE8F08756F8250018B3FEF7B4FCC8
:101900006D1C0744EDB24545F5D308EB4800C519F9
:10191000E91D2046AD1CFFF7A0FD2168A1B160685C
:101920008223421C62600B54D4E900010144284622
:10193000FFF782FD00B2002808DA2046FFF76EFDAF
:101940000420D6E70220D4E70320D2E761682368A9
:101950000844411C4FEA192261601A54D4E900304E
:10196000421C626003F80090002520E056F8250034
:10197000FEF77AFC0746020AD4E90030411C616098
:101980001A54D4E90020411C61601754D4E90001C5
:10199000084456F825103A46FEF76DFC6068236847
:1019A0003844421C62606D1C03F800A0EDB245454E
:1019B000DCD300209DE7F0B50446002001235D053F
:1019C000106012E0275C166807F07F0707FB0366CC
:1019D0001660265C360601D4401CF0BDDB01AB422C
:1019E00002D36FF00100F0BD401C8842EADB4FF0EB
:1019F000FF30F0BD4178022901D001207047817885
:101A000019B1012901D0FF207047C078704700004C
:101A10002DE9F84F05460078DDE90A7B00F00F0953
:101A200000200E460090C9F3410114468BF80010C7
:101A3000984609F0080A6A460421681CFFF7BBFFB4
:101A4000054400986D1C022843D35FEAC97040D159
:101A5000288840BA20800099801C88427AD83EA10C
:101A6000A81CFEF7E5FB10B10F20BDE8F88F9BF82E
:101A7000000020B101282DD002286BD12AE0BAF154
:101A8000000F67D12088401C03F0D4FC3060002890
:101A900060D02188491CFEF7B4FB2288A91C30685D
:101AA000FEF796FB20880099081A801E80B23880C5
:101AB000401C03F0BFFCC8F8000038B13988491C4D
:101AC000FEF79FFB3A882088AD1C33E0306803F0B6
:101AD0003FFB3FE02088009A811C91423AD8A91C24
:101AE00008440C99008840BA08800C9890B320886C
:101AF000401C03F09FFC306060B32188491CFEF756
:101B000080FB2288A91C3068FEF762FB20880099C0
:101B1000081A001F80B23880401C03F08BFCC8F804
:101B200000000028D2D03988491CFEF76AFB3A88A9
:101B300020882D1D4119D8F80000FEF749FB2B2104
:101B40003046FEF787FB28B923213046FEF782FB9B
:101B500000288AD0FF2088E72463726571000000A6
:101B60004178022904D1817811B9C0780A2801D0BE
:101B7000012070470020704738B504460078FF21E7
:101B80000009421E0E2A01D3084638BD0328FCD1A5
:101B9000002000906A460421601CFFF70CFF2044DF
:101BA0000099401C022907D32278D20704D1028869
:101BB00052BA921C8A4201D9FF2038BD04A1801C70
:101BC000FEF736FB08B10F2038BD032038BD0000FA
:101BD00024637265710000000146FF208A78002AA4
:101BE0000BD1CA78142A08D1087938B1012805D058
:101BF000022803D0802803D00220704700207047BD
:101C000001207047FEE7704730B50F23C278017896
:101C10000125FAB1144A126801F1E02102F4E062F0
:101C2000C2F5E062C2F30722C2F10404D340427855
:101C3000A24084781C401443220181F800240078DB
:101C400000F01F018D404009800000F1E020C0F845
:101C5000005130BD01F01F0085404809800000F1AF
:101C6000E020C0F8805130BD0CED00E0024908438F
:101C700002490860704700000000FA050CED00E022
:101C800070B50025002105F1B00000F02AF900210F
:101C9000084600F026F90021102000F022F9002467
:101CA0000121002000F01DF9641CE4B2802CF7D360
:101CB0006D1CEDB2082DE5D370BD00001CB50121EF
:101CC000022000F0C1FE0121082000F0BDFE012429
:101CD0008DF8064000208DF80700E00300908DF895
:101CE000044003208DF8050069463F48FFF7B8F926
:101CF000A002009069463D48FFF7B2F93C48C0F8A1
:101D0000BC423C48C0F8A842C82003F0A7F9002113
:101D1000AE2000F0E6F80021084600F0E2F80021CD
:101D2000102000F0DEF80021402000F0DAF8002159
:101D3000B02000F0D6F80021812000F0D2F8002178
:101D4000FF2000F0CEF80021A12000F0CAF8002109
:101D5000A62000F0C6F80021A82000F0C2F800215B
:101D60003F2000F0BEF80021C82000F0BAF80021A2
:101D7000D32000F0B6F80021084600F0B2F80021A8
:101D8000D52000F0AEF80021802000F0AAF8002154
:101D9000D82000F0A6F80021052000F0A2F80021CC
:101DA000D92000F09EF80021F12000F09AF80021DF
:101DB000DA2000F096F80021122000F092F80021BD
:101DC000DB2000F08EF80021302000F08AF800219E
:101DD0008D2000F086F80021142000F082F8002108
:101DE000AF2000F07EF81CBD00040240000C024051
:101DF000008040420080414210B50A46044600215E
:101E000002F1B00000F06DF8102040EA141000213B
:101E100000F067F804F00F00BDE81040002100F06A
:101E200060B800002DE9F041203A00240F468046BA
:101E3000D5B27F2803D900208F1C8046FFB2102B1B
:101E4000394610D0FFF7D8FF164905EB450001EBE6
:101E500040050121285D00F044F8641CE4B2062C22
:101E6000F7D3BDE8F081FFF7C7FF0F4E04EB051075
:101E70000121305C00F035F8641CE4B2082CF5D385
:101E80007F1CF9B24046FFF7B7FF002404EB0510B2
:101E900030440121007A00F024F8641CE4B2082CDC
:101EA000F4D3DEE7656300088D6500082DE9F04195
:101EB000984617460E46044600250DE04346314637
:101EC0002046FFF7AFFF0834E4B2782C02D9002493
:101ED000B61CF6B26D1CEDB27A5D002AEED1BDE8FB
:101EE000F081C0B209B101F0F8BB01F0DFBB000026
:101EF000F0B5E9B00024074664941CA016460D46D0
:101F00000090659466941BA31DA28021679444A849
:101F100001F00AFCCDE900563B4622A24FF4807145
:101F200004A801F001FC04A8FEF79EF9034664A88A
:101F30000121CDE90210009404AA019444A90A20C9
:101F4000FFF7E6FB40B101461FA001F0DDFB20A03A
:101F500001F0DAFB69B0F0BD659881B26498FFF7D3
:101F60004BF864A8FFF75AFAF4E70000757365723E
:101F7000310000006B303038354D394F39340000B6
:101F8000247379732F25732F25732F7468696E67F7
:101F90002F70726F70657274792F7365745F7265DC
:101FA000706C79007B226964223A222573222C22EC
:101FB000636F6465223A25642C226D7367223A228E
:101FC0002573227D0000000025640D0A000000003A
:101FD0005741524E3A20E58F91E980817365745FD5
:101FE0007265706C79E5938DE5BA94E5A4B1E8B4B7
:101FF000A50D0A0000B5A7B00020219022902390E3
:10200000249016A0009017A319A2402101A801F066
:102010008BFB12A0009013A31DA2402111A801F078
:1020200083FB01A8259011A8269011AA01A922A03E
:1020300001F06AFB21A80090012325AA00211420A9
:10204000FFF74AFC002807D1229881B22198FEF7B9
:10205000D3FF21A8FFF7E2F927B000BD75736572C1
:10206000310000006B303038354D394F39340000C5
:10207000247379732F25732F25732F7468696E6706
:102080002F70726F70657274792F73657400000021
:10209000247379732F25732F25732F7468696E67E6
:1020A0002F70726F70657274792F706F73742F72E6
:1020B00065706C7900000000E8AEA2E99885E4B88C
:1020C000BBE9A2983A2025732C2025730D0A000045
:1020D00030B58BB00024069407940894012527A3FB
:1020E000284A29A12BA0099401F00EFB06A8CDE9EE
:1020F00004400120CDE900040302029403941FA2CE
:10210000204921A0FFF7D2F928B12EA001F0FCFA56
:102110000BB0284630BD079881B20698FEF76CFFD9
:10212000FA20FEF759FE040022D001462EA001F04D
:10213000EBFA2046FFF720FD022819D12046FFF7D1
:1021400059FC062818D2DFE800F003080A0C0E102C
:1021500027A001F0D9FA00250AE02BA006E034A060
:1021600004E03EA002E047A000E053A001F0CCFA5A
:1021700006A8FFF753F9CBE75DA0F7E77573657223
:1021800031000000708800086B303038354D394F11
:10219000393400004F6E654E65745F4465764C6956
:1021A0006E6B0D0A50524F49443A2025732C094159
:1021B0005549463A2025732C44455649443A2573DF
:1021C0000D0A00005741524E3A094D5154545F5088
:1021D00061636B6574436F6E6E65637420466169FD
:1021E0006C65640D0A00000025730D0A00000000F4
:1021F000546970733A09E8BF9EE68EA5E68890E5BB
:102200008A9F0D0A000000005741524E3A09E8BF6C
:102210009EE68EA5E5A4B1E8B4A5EFBC9AE58D8F46
:10222000E8AEAEE99499E8AFAF5C720A0000000036
:102230005741524E3A09E8BF9EE68EA5E5A4B1E8A3
:10224000B4A5EFBC9AE99D9EE6B395E79A84636CCA
:1022500069656E7469640D0A000000005741524EB2
:102260003A09E8BF9EE68EA5E5A4B1E8B4A5EFBCA7
:102270009AE69C8DE58AA1E599A8E5A4B1E8B4A504
:102280000D0A00005741524E3A09E8BF9EE68EA55E
:10229000E5A4B1E8B4A5EFBC9AE794A8E688B7E551
:1022A000908DE68896E5AF86E7A081E99499E8AF3E
:1022B000AF5C720A000000005741524E3A09E8BF75
:1022C0009EE68EA5E5A4B1E8B4A5EFBC9AE99D9E73
:1022D000E6B395E993BEE68EA528E6AF94E5A6821F
:1022E000746F6B656EE99D9EE6B395290D0A00003B
:1022F0004552523A09E8BF9EE68EA5E5A4B1E8B47E
:10230000A5EFBC9AE69CAAE79FA5E99499E8AFAF30
:102310005C720A0010B590B0044640216846FDF793
:1023200070FF34A12046FDF7BAFF40216846FDF753
:1023300068FF3A48007808B139A200E03AA23CA10F
:10234000684601F00BFA69462046FDF765FF40211B
:102350006846FDF756FF3D48007808B130A200E01E
:1023600031A23BA1684601F0F9F969462046FDF724
:1023700053FF40216846FDF744FF3B48007808B111
:1023800027A200E028A239A1684601F0E7F96946D2
:102390002046FDF741FF40216846FDF732FF3848EF
:1023A000007808B11EA200E01FA236A1684601F025
:1023B000D5F969462046FDF72FFF40216846FDF715
:1023C00020FF3748007808B115A200E016A235A119
:1023D000684601F0C3F969462046FDF71DFF36A1A6
:1023E0002046FDF719FF2046FDF73EFF10B080B2F2
:1023F00010BD00007B226964223A22313233222C44
:102400002276657273696F6E223A22312E30222C49
:1024100022706172616D73223A7B00003A000020E5
:10242000747275650000000066616C7365000000E1
:10243000226C6F636B5F7374617465223A7B2276E2
:10244000616C7565223A25737D2C00003E000020EA
:10245000226C65646D6F6465223A7B2276616C75CF
:1024600065223A25737D2C003B000020226C6564B8
:10247000223A7B2276616C7565223A25737D2C00A9
:102480003D0000202246616E5F4D6F6465223A7BFD
:102490002276616C7565223A25737D2C0000000060
:1024A0003C0000202246616E223A7B2276616C75E8
:1024B00065223A25737D00007D7D00002DE9F04105
:1024C000064688B0002003900490ADF81400ADF8E3
:1024D00018008DF81C0004463046FFF74DFB0546FA
:1024E000032816D0042D7DD0092D7CD04FF0FF3469
:1024F000FEF764FC641C09D00F2D01D0032D05D11B
:10250000049802F025FE039802F022FE08B0BDE810
:10251000F081504A07A906A88DE8070003AB05AA79
:1025200004A93046FFF774FA04005BD1BDF8180027
:102530000090DDE90331BDF8142047A001F0E4F874
:10254000039802F035FD804652A102F015FD07699F
:1025500051A0394601F0D8F80A2002F07FFD52A2BE
:10256000C8213846FFF7C4FC51A1404602F004FDE3
:10257000074651A102F000FD38B1C068012800D023
:1025800000205049087000F01DFA4FA1384602F0B3
:10259000F3FC38B1C068012800D000204D49087014
:1025A00000F04CFC4CA1384602F0E6FC40B1C0689B
:1025B000012800D0002049490870642000F01EFA6C
:1025C00047A1384602F0D8FC38B1C068012800D0D5
:1025D00000204549087000F037FC44A1384602F05D
:1025E000CBFC01E024E02BE040B1C068012800D022
:1025F00000203F490870642000F00EFA3DA13846E3
:1026000002F0BAFC88B1C16803290ED1808A3B4F21
:1026100080B26428388004D800F01CFC398838A0C7
:1026200001E001463DA001F06FF8404602F080FC59
:102630003046FFF795FA00287FF45AAF40A004E037
:102640003046FFF7C9FA18B145A001F05DF84FE731
:102650004AA0FAE738000020746F7069633A2025B9
:10266000732C20746F7069635F6C656E3A2025640B
:102670002C207061796C6F61643A2025732C207076
:1026800061796C6F61645F6C656E3A2025640D0A38
:102690000000000069640000E68C87E4BBA44944A4
:1026A0003A2025730D0A0000737563636573730028
:1026B000706172616D7300006C6F636B5F73746146
:1026C000746500003A00002046616E5F4D6F6465DE
:1026D000000000003D00002046616E003C0000202C
:1026E0006C65646D6F6465003E0000206C6564007D
:1026F0003B000020736572766F3100008600002079
:10270000536572766F312073657420746F20256471
:1027100020646567726565730D0A00004572726F0B
:10272000723A20496E76616C696420736572766FC7
:1027300020616E676C6520282564290D0A00000061
:10274000546970733A094D515454205075626C6944
:1027500073682053656E64204F4B0D0A0000000023
:10276000546970733A094D51545420537562736320
:1027700072696265204572720D0A000054697073B7
:102780003A094D51545420537562736372696265FE
:10279000204F4B0D0A00000030B585B0002001909D
:1027A00002900390044604904FF400711C48FDF71A
:1027B00028FD1B48FFF7AEFD05B2194919A000F02E
:1027C000A3FF29461AA000F09FFF002D0BD001A8FF
:1027D000009000232A4619A11AA0FFF751F870B102
:1027E0001BA000F091FF05B030BD015DDDE90123C4
:1027F000D1540299491C641C24B2029100E008489B
:10280000AC42F2DB029881B20198FEF7F5FB18A00A
:10281000029900F079FF01A8FEF700FEE3E700004F
:10282000FC0400202D2D2D25732D2D2D00000000E2
:102830002D2D2D25642D2D2D000000007573657242
:10284000310000006B303038354D394F39340000DD
:102850005741524E3A094544505F4E65774275667E
:10286000666572204661696C65640D0A00000000AF
:1028700053656E642025642042797465730D0A00E7
:1028800010B5024800F0F7FBC0B210BD0040014097
:102890002DE9F04101218AB0080400F0EDF8012192
:1028A000084600F0E9F80121102000F0CDF84FF4BF
:1028B0001870089002208DF8240000248DF826401E
:1028C00003208DF825003C4D8DF8274008A92846A7
:1028D000FEF7C6FB032205212846FEF7FDFB032277
:1028E00006212846FEF7F8FB012209212846FEF7BB
:1028F000F3FB44F29F16DFF8C480ADF81460C725DF
:102900000695ADF81C40ADF8164005A9404600F00C
:102910004DFC2B4FADF814600695ADF81C40ADF89A
:10292000164005A9384600F041FC6025ADF800507E
:102930000126ADF802600294ADF80C4069464046AD
:1029400000F0B0FBADF80050ADF802600294ADF8B5
:102950000C406946404600F0DBFBADF80050ADF896
:1029600002600294ADF80C406946384600F09AFBCC
:102970000821404600F0C6FB0821404600F008FC54
:102980000821384600F0BEFB0121404600F051FB13
:102990000121384600F04DFB0121404600F056FB76
:1029A0000121384600F052FB0121384600F058FB67
:1029B0000AB0BDE8F0810000001002400040014074
:1029C00000000140084810B50178084811B10129FC
:1029D00002D004E0052100E00F2100F0E3FBBDE898
:1029E0001040322002F03ABB3A0000200040014083
:1029F0000146014800F0D6BB0040014001460448B2
:102A0000044A807800B90021104600F0CBBB0000DA
:102A10003A000020000001400146074810B5407808
:102A2000064A00B90021104600F0BEFBBDE8104088
:102A3000322002F013BB00003A00002000400140A9
:102A40007047FDF77DBF0000044A0029116801D0DE
:102A5000014300E0814311607047000030380240BC
:102A6000044A0029116801D0014300E0814311604C
:102A70007047000040380240044A0029116801D024
:102A8000014300E081431160704700004438024078
:102A900070B5204B1968204C11F00C0104D0661061
:102AA000042903D0082903D004601BE0066019E064
:102AB000184A121F1168C1F38055116801F03F01D7
:102AC00015B1B6FBF1F101E0B4FBF1F11468126845
:102AD000C4F388146143C2F30142521C5200B1FB9B
:102AE000F2F1016019680F2202EA11110B4A545CDD
:102AF0000168E14041601C68072505EA9424145DE3
:102B000021FA04F484601B6805EA5333D25CD14097
:102B1000C16070BD083802400024F4001500002098
:102B20001CB501210220FFF7A7FF4FF400700090B1
:102B300000208DF8040069460148FEF791FA1CBD9B
:102B4000000402401CB501210220FFF795FF4FF45D
:102B50000070009002208DF8050001208DF804001F
:102B600000208DF8060069460148FEF779FA1CBD81
:102B7000000402402DE9F05F0025DFF85480DFF803
:102B800054B082462C46A9460126C4F1070006FA35
:102B900000F717EA0A0F02D0C8F8946201E0C8F8FB
:102BA0009492C8F88C92012002F072FAC8F88C62F4
:102BB000012002F06DFADBF8100208B12F43FDB2DC
:102BC000641CE4B2082CE0D32846BDE8F09F000066
:102BD00000804042008041427CB501210C20FFF77B
:102BE00033FF00244FF48070174D8DF8074000909C
:102BF0008DF8044069462846FEF732FA8DF8064003
:102C00008DF8074001208DF804004FF40460009017
:102C100002208DF8050069462846FEF721FAC020FB
:102C20000A4C009069462046FEF71AFA40212046D9
:102C3000FEF76BFA80212046FEF765FA4021284610
:102C4000FEF763FA7CBD000000080240000C024061
:102C500070B52F48D0F83412D0F8282241EAC201CA
:102C6000D0F82C22D0F83002920042EA4000014312
:102C7000C8B228490022284C08700121274B10288F
:102C800044D2DFE800F043080B0F141F2123282B48
:102C90002E3035373C3E2170642004E02270002045
:102CA000FFF7BAFE1E20BDE87040FFF7B5BEC82092
:102CB000FFF7B2FEFFF7E4FDBDE87040014618A043
:102CC00000F022BD642002E0002000E03220BDE8D8
:102CD000704000F0BFB81970642005E01A70002041
:102CE00002E0322000E0C820BDE87040FFF786BE59
:102CF000012000E00020BDE8704000F0A5B80120F0
:102D000000E00020BDE8704000F098B870BD000001
:102D100000004242EB0000203B0000203C0000206D
:102D20004C454425640A00007CB501211020FFF7C2
:102D30008BFE00248DF804404FF470508DF806404F
:102D400003250E4E00908DF805508DF8074069461A
:102D50003046FEF785F9B015009001208DF804008B
:102D60008DF806408DF805508DF8074069463046CD
:102D7000FEF776F90248C0F8A0427CBD0010024080
:102D800000004242704700000CB500222749009223
:102D90000192086840F4803008604FF4A04308684E
:102DA00000F4003001900098401C0090019810B988
:102DB00000989842F3D10868800334D5012001902F
:102DC0001A484030026842F0805202601848026897
:102DD00042F440420260154808300268026002680E
:102DE00042F400420260026842F4A0520260031FF3
:102DF000104A1A600A6842F080720A600A689201FA
:102E0000FCD50D4940F205720A60016821F003010A
:102E10000160016841F0020101600168C1F38101B4
:102E20000229FAD10CBD01920CBD0000003802400D
:102E30000070004008544007003C02400149C8703F
:102E4000704700003A0000200149087170470000F7
:102E50003A0000202DE9F0410446652804D3BDE87E
:102E6000F0411AA000F050BC1C4E64274FF0000542
:102E70003088A0420AD31DE000F036F8642002F04A
:102E8000EDF8294616A000F03FFC6D1C3088201A92
:102E900000EB4000400090FBF7F0A842ECDC12E0B1
:102EA00000F054F8642002F0D9F829460CA000F094
:102EB0002BFC6D1C3088001B00EB4000400090FB99
:102EC000F7F0A842ECDC3480BDE8F081616E676CFD
:102ED00065206572726F720D0A0000007C00002090
:102EE0002564200D0A0000002DE9F0470024134F4F
:102EF000DFF84C80DFF84C90134E254640F21A4A1A
:102F0000385D00F00102C8F89822C0F34002C9F809
:102F10009822C0F38001C6F8A412C0F3C000C6F81E
:102F20009C02641CE4B2032C00D90024022002F0AD
:102F300095F86D1C5545E3DBBDE8F0877E00002069
:102F40000000424200804042000041422DE9F0472B
:102F50000024134FDFF84C80DFF84C90134E2546C9
:102F600040F21A4A385D00F00102C8F89822C0F316
:102F70004002C9F89822C0F38001C6F8A412C0F339
:102F8000C000C6F89C02641CE4B2032C00D90024E3
:102F9000022002F063F86D1C5545E3DBBDE8F087C5
:102FA0008200002000004242008040420000414276
:102FB00070470000124810B5016841F470010160CB
:102FC0001048016841F0010101600E4A00210832F9
:102FD000116002680C4B1A400260031D0B4A1A6014
:102FE000026822F48022026006480C300160FFF77C
:102FF000CBFE03494FF000608039086010BD00002F
:1030000088ED00E000380240FFFFF6FE103000249B
:1030100010B501218C07204600F02FF8002807D0BA
:1030200003F0A8F82046BDE81040012100F00BB8DD
:1030300010BD0029018802D041F0800101E021F09B
:10304000800101807047C9430182704700290188CF
:1030500002D041F0010101E021F00101018070473F
:10306000002930F8441F02D041F4004101E0C1F3CF
:103070000E0101807047806B704702460020138A62
:1030800092890B4202EA010202D0002A00D00120FC
:103090007047002A828901D00A4300E08A43828176
:1030A0007047000030B5028C22F001020284028CCD
:1030B0008388048B22F0020224F073050C882C43D1
:1030C0008D8915434A882A430C4DA84202D00C4DE5
:1030D000A8420DD122F00805CA8923F440732A437F
:1030E00022F004058A882A430D8A1D434B8A2B430C
:1030F0008380048389684163028430BD00000140FD
:1031000000040140028B22F008020A430283704748
:1031100070B5028C22F010020284028C8388048B2A
:103120000D8824F4E6464FF6FF7404EA052535437E
:103130008E8922F0200204EA061616434A8804EA21
:1031400002123243104EB04202D0104EB04215D19E
:1031500022F08006CA8923F4406304EA0212324353
:1031600022F040068A8804EA021232430E8A04EAF8
:1031700086061E434B8A04EA830333438380058318
:1031800089688163028470BD000001400004014031
:10319000028B4FF6FF7322F4006203EA0121114310
:1031A00001837047416370478163704730B502887F
:1031B000164C174DA0420DD0A8420BD0B0F1804F55
:1031C00008D0144B984205D0134B984202D0134BB1
:1031D000984203D122F070034A881A43104B984258
:1031E00006D0104B984203D022F440730A891A4348
:1031F00002804A68C2620A880285A04201D0A842C1
:1032000001D1897A01860121818230BD000001400F
:10321000000401400004004000080040000C004091
:10322000001000400014004070B5154C40F22551CC
:10323000204600F065F800280ED0204600F0EEF899
:10324000104AC1B21088030406D444044FF00003AE
:1032500006D50A2901D0138070BD40F400400DE06E
:103260000D2909D0C0F30D04074D401C80B229552B
:103270001080C728EFD870BD40F48040108070BD2A
:103280000010014040000020FC06002010B50F4C4B
:1032900040F22551204600F033F8002814D00C4AA3
:1032A0001088B0F5806F01D3002010800748001D02
:1032B0000088084B11885854491C11802046BDE8ED
:1032C0001040202100F008B810BD00000048004068
:1032D00034000020FC000020C94301807047002911
:1032E000818902D041F4005101E021F40051818133
:1032F00070470246002012880A4200D00120704721
:1033000070B501F01F0501260024C1F3421306FA2F
:1033100005F2012B0FD0022B0FD0838A4FEA112127
:103320000088134206FA01F600EA060001D000B157
:103330000124204670BD8389F0E7038AEEE710B5CB
:10334000C1F3421301F01F040121A140012B07D05A
:10335000022B07D01430002A026805D00A4304E08B
:103360000C30F8E71030F6E78A43026010BD000029
:103370007FB50446008A0D46C98820F440500143B9
:103380002182A08941F20C618843A9882A891143CE
:103390006A8902431143A181A08A20F44071A8895F
:1033A0000843A0826846FFF773FB1A48844202D0A4
:1033B0001948844201D1039800E00298A1890904C8
:1033C00000EBC00101EB0010296801D5490000E0C5
:1033D0008900B0FBF1F06422B0FBF2F109010B09A6
:1033E0006FF018056B4300EB8300A3891D044FF0B9
:1033F000320306D503EBC000B0FBF2F000F007008B
:1034000005E003EB0010B0FBF2F000F00F00084302
:1034100020817FBD00100140001401408088C0F36E
:1034200008007047C1F308018180704710B5084C4F
:10343000607800280BD007A000F066F9FFF7ACF920
:1034400009A000F061F9FDF7B9FC0020607010BD23
:10345000D40000204F6E654E65745F53656E644402
:103460006174610D0A00000073656E645F646174CD
:10347000615F656E640A0000FEE72DE9F0411646C3
:103480000D46074600240CE015F8011B3846FFF7EF
:10349000C9FF40213846FFF72CFF0028F9D0641CF3
:1034A000A4B2B442F0D3BDE8F081000070B5044688
:1034B00000F072F80A2001F0EBFD114D0020C5F874
:1034C000B802202005F52E75FFF754FBC4F3074022
:1034D000FFF750FBC4F30720FFF74CFBE0B2FFF708
:1034E00049FB0120286002E0012001F0B7FD00F057
:1034F00041F8C007F8D1BDE8704000F003B8000003
:103500000080404210B5064C0020C4F8B8020420E8
:1035100004F52E74FFF72EFB0120206010BD000083
:10352000008040422DE9F041114F0446002015462D
:103530000E46C7F8B8020320FFF71CFBC4F3074090
:10354000FFF718FBC4F30720FFF714FBE0B2FFF707
:1035500011FB002404E0FF20FFF70CFB3055641C36
:10356000AC42F8D30120C7F8B802BDE8F0810000F2
:103570000080404210B5074C0020C4F8B802052076
:1035800004F52E74FFF7F6FAFF20FFF7F3FA012196
:10359000216010BD0080404210B5064C0020C4F8E8
:1035A000B802062004F52E74FFF7E4FA012020602B
:1035B00010BD0000008040422DE9F04115460E4646
:1035C0000446FF2A04D9BDE8F04119A000F09CB8D8
:1035D000FFF7E2FF0A2001F05BFD194F0020C7F85A
:1035E000B8020220FFF7C6FAC4F30740FFF7C2FA99
:1035F000C4F30720FFF7BEFAE0B2FFF7BBFA0024DE
:1036000004E0305DFFF7B6FA641CE4B2AC42F8D3D4
:1036100001E001F023FDFFF7ADFFC0074FF001000F
:10362000F7D1C7F8B802BDE8F041FFF76BBF000063
:103630004F7574206F662072616E6765210A000005
:10364000008040422DE9F047164D00268146C5F81E
:10365000BC62154FC7F8A862052001F019FD0024CF
:10366000A8460125C4F1070105FA01F010EA090F87
:1036700002D0C7F8A85201E0C7F8A862052001F0FF
:1036800007FDC8F8BC52052001F002FDC8F8BC6275
:10369000052001F0FDFC641CE4B2082CE2D3BDE877
:1036A000F0870000008040420080414210B504468F
:1036B000FDF7C8FD7820FFF7C5FFFDF7F3FD0020FB
:1036C000FFF7C0FFFDF7EEFD2046FFF7BBFFFDF75C
:1036D000E9FDBDE81040FDF7CDBD10B50446FDF78E
:1036E000B1FD7820FFF7AEFFFDF7DCFD4020FFF7CE
:1036F000A9FFFDF7D7FD2046FFF7A4FFFDF7D2FD98
:10370000BDE81040FDF7B6BD0FB4054B10B503A9D9
:10371000044A029801F020F810BC5DF814FB000088
:103720002D510008EC0000200FB47CB50C0009AD51
:1037300001D0611E00E00021CDE90001064B6A4680
:103740002946089801F008F8002C02D0009A0021C0
:1037500011707CBC5DF814FB5F4E00080FB4084B81
:1037600010B504A902AA039800F0F6FF044602A9C6
:10377000002001F07FFB204610BC5DF814FB000028
:10378000754E000803B401984100009850EAC1202A
:1037900018BF04204A0D18BF40F0010040F2FF722C
:1037A000B2EB515F08BF40F00200012808BF0520BE
:1037B00002B07047000000002DE9F04D2DED040B24
:1037C0002DED0E8B96B0DDE92550279CDDF890A0FD
:1037D00025F0004624F00048BAF1000F14BF012183
:1037E000002101EB4502FC4953184A1093422AD3A9
:1037F000002814BF0123002303EB44030B44F749C3
:103800008B4220D358EA00019FEDF59B76D0DFF87C
:10381000D8B35D4503D1BAF1000F05D188E0BAF104
:10382000000F08BF002100D0012101EB450111F577
:10383000001F08D8002814BF0121002101EB44011A
:1038400011F5001F0BD99DED261B9DED240B16B025
:10385000BDEC0E8B04B0BDE8F04D00F069BE002752
:10386000002DBCBFE149884521DAE1498845A8BF60
:1038700002271CDAC3451ADCDE4901EB2851142962
:1038800008DDC1F1340220FA02F101FA02F28242AB
:103890000DD108E058B9C1F1140228FA02F101FA79
:1038A00002F2424503D101F00101C1F1020756EADB
:1038B0000A0124D1002C22DA002D18BF022F01D0DA
:1038C000012F0AD0022000F07FFE16B0BDEC0E8B57
:1038D00004B0BDE8F04D00F013BE022000F074FE0D
:1038E00000F00EFE51EC100B81F0004141EC100B8A
:1038F00016B0BDEC0E8B04B0BDE8F08D18E09FED66
:10390000BEAB9FEDBF8B002871D1B848804522D156
:1039100005F1804010F5801008BFBAF1000F07D004
:10392000B3450ADC002CA8BF9DED260BE0DA0DE0C4
:10393000B0EE490AF0EE690ADAE7002C06DA9DEDEE
:10394000260B51EC100B81F000416FE0AE4878443B
:1039500090ED000BCCE7D8454DD1002C48DA2EB1C4
:1039600086423AD1BAF1000F42D126E0BAF1000FF7
:1039700013D0022000F028FE00F0F6FD8DED020BC2
:103980009DED240B8DED000B10EE900A039961F371
:103990001E0003909DED020BAAE78DED02AB9DED9D
:1039A000240B1AEE901A10EE900A8DED000B61F3C5
:1039B0001E0003909DED020B9AE78DED028B9DEDAD
:1039C000240B18EE901A10EE900A8DED000B61F3A7
:1039D0001E0003909DED020B8AE709DA9DED240B92
:1039E00051EC190B53EC102BFCF78AFD1EE020E084
:1039F0009DED240B7CE786421BDAB4F1804F0DD09D
:103A0000A4F10050B0F1FF5013D1002D11DB9DED5A
:103A1000240B51EC100B02F046FB07E09DED240B4C
:103A200053EC102B51EC100B00F0C2BC41EC100B0E
:103A30005EE79DED240B51EC100B01F06BFBBAF12E
:103A4000000FCDE90E0142D19FED710B46B3A6F1F7
:103A5000E040B0F17F600CD05E4538D1002D00DA37
:103A6000A7B3022F0CBF01204FF0FF30FCF7B7FDCA
:103A7000DCE7002D01DD002C0DDA002D01DD002C2E
:103A80001FDB002D16DA002C14DB012F08BF9FED81
:103A9000620B3FF42DAFB0EE4A0AF0EE6A0A27E758
:103AA000022F18BF002D0CD0012F0AD1002DFFF6D8
:103AB0001FAF06E0002DB8BF002C08DA012F3FF43D
:103AC00017AFB0EE480AF0EE680A11E71BE00120DC
:103AD00000EBE57050EA070115D0791EB0EE498A77
:103AE000F0EE698A084308BF9FED4D8B4E480025D4
:103AF000804570DD4D494E48884514DDB0420DDBF0
:103B0000002C19DB2FE0012000F05EFD16B0BDECAB
:103B10000E8B04B0BDE8F04D00F016BDB34502DCDD
:103B2000002C09DC1FE0864202DA002C1BDA03E0DD
:103B30005E452BDD002C16DD022000F045FD00F077
:103B400013FD8DED020B53EC1A2B51EC180BFCF707
:103B500065FCCDE900010399019861F31E00039013
:103B60009DED020BC4E6022000F02EFD00F00CFDDE
:103B700010EE901A18EE900A8DED020B8DED008B71
:103B800061F31E0003909DED020BB1E69DED0E0B5F
:103B900053EC192B51EC100BFCF73AFC9FED260B64
:103BA000CDE9080153EC102B9DED080B51EC100BE7
:103BB000FCF734FC9FED221B53EC112BFCF72BFC84
:103BC0009DED081B53EC112BFCF728FC9FED1E1BF1
:103BD00053EC112B3CE08CE0FFFF1F00FFFF0F00B8
:103BE000000000000000F03F0000F03F0000F07F08
:103BF0000000404301FCFFFF000000000000F07FD8
:103C00000000000000000000164F0000000000004F
:103C10000000000000000080000000000000F0FF35
:103C2000000000000000F0BF0000E0410000F04391
:103C3000FFFFEF3F00000000000000000000D03F49
:103C4000555555555555D53F000000000000E03F43
:103C5000FCF7E1FB9DED080B41EC1A0B53EC102B2C
:103C600051EC100BFCF7DAFB53EC1A2BFCF7D6FBEC
:103C700041EC1A0B9FEDFE0B53EC102B9DED080B46
:103C800051EC100BFCF7CAFB41EC1B0B9FEDFA0B40
:103C900051EC1A0B53EC102BFCF7C0FB41EC1A0B48
:103CA0009FEDF70B53EC102B9DED080B51EC100B17
:103CB000FCF7B4FB53EC1A2BFCF7AAFB41EC1A0BF4
:103CC00051EC1B0B53EC1A2BFCF701FB0690CDE9D2
:103CD00006519DED060B53EC1B2B51EC100BFCF722
:103CE00097FB53EC1A2BFCF796FB41EC100B00F002
:103CF000A1B90020B6F5801F0EDA9FEDE30B53EC5F
:103D0000102B9DED0E0B51EC100BFCF787FBCDE952
:103D10000E016FF034000E4600EB2650A0F2FF3784
:103D2000C6F31300DA4940F07F6646F040568842F9
:103D3000D8BF002408DDD7498142C8BF012403DC75
:103D40000024A6F580167F1CD348784400EBC400FD
:103D50000F9690ED00CB9DED0E0B53EC1C2B51EC10
:103D6000100BFCF755FB9DED0E0B41EC1B0B53ECC0
:103D70001C2B51EC100BFCF7AAFA41EC100B51EC88
:103D8000190B53EC102BFCF7BBFB41EC1D0B51EC5A
:103D90001B0B53EC1D2BFCF741FB41EC1A0BBF48EE
:103DA0008DED10AB7844109590ED000B4FF0005066
:103DB00040EA660000EB84408DED080B00F5002022
:103DC00009909DED080B53EC1C2B51EC100BFCF7EC
:103DD0001FFB9DED0E1B53EC112BFCF71CFB41EC64
:103DE000100B53EC102B9DED100B51EC100BFCF74E
:103DF00015FB9DED080B41EC1C0B53EC102B9DEDBE
:103E0000100B51EC100BFCF709FB53EC1B2BFCF7D0
:103E100002FB53EC1C2BFCF7FBFA53EC1D2BFCF7BD
:103E2000FDFA41EC1C0B53EC1A2B51EC1A0BFCF76E
:103E3000F5FA41EC1B0B9A480621B0EE4B0AF0EE66
:103E40006B0A784400F0E0FAB0EE401AF0EE601A27
:103E5000B0EE41DAF0EE61DA53EC1B2B51EC1B0BA8
:103E6000FCF7DCFA53EC1D2BFCF7D8FA9DED100B98
:103E700041EC1B0B53EC1A2B51EC100BFCF727FAFF
:103E800053EC1C2BFCF7CAFA53EC1B2BFCF71FFA64
:103E90009DED100B41EC1B0B53EC102B51EC100B58
:103EA000FCF7BCFA41EC1D0B9FED7FEB53EC1E2B96
:103EB000FCF70DFA53EC1B2BFCF709FA0890CDE93F
:103EC00008519DED080B53EC1E2B51EC100BFCF729
:103ED0009FFA53EC1D2BFCF79BFA53EC1B2BFCF7C2
:103EE0009AFA9DED080B41EC1D0B53EC102B9DED48
:103EF000100B51EC100BFCF791FA41EC1B0B53EC3F
:103F00001A2B51EC1D0BFCF789FA9DED080B41ECC7
:103F10001A0B53EC102B51EC1C0BFCF77FFA53ECF3
:103F20001A2BFCF7D4F941EC1A0B51EC1B0B53EC98
:103F30001A2BFCF7CCF90C90CDE90C519DED0C0B34
:103F400053EC1B2B51EC100BFCF762FA53EC1A2BC1
:103F5000FCF761FA41EC1B0B9FED550B53EC102B5A
:103F60009DED0C0B51EC100BFCF758FA41EC1A0BC1
:103F70009FED510B51EC1B0B53EC102BFCF74EFA41
:103F800041EC1B0B9FED4E0B53EC102B9DED0C0BDE
:103F900051EC100BFCF742FA53EC1B2BFCF797F992
:103FA00041EC100B4848784400EBC40090ED001B36
:103FB00051EC100B53EC112BFCF789F941EC1B0B66
:103FC0003846FCF70CFBCDE9080153EC1B2B51ECF8
:103FD0001A0BFCF77CF941EC100B3C48784400EBE1
:103FE000C40090ED00CB51EC100B53EC1C2BFCF7F4
:103FF0006EF99DED081B53EC112BFCF768F9069048
:10400000CDE906519DED080B53EC102B9DED060BF1
:1040100051EC100BFCF7FCF953EC1C2BFCF7F8F9F6
:1040200053EC1A2BFCF7F4F953EC1B2BFCF7F3F9C8
:1040300041EC100B9DED261B53EC102B8DED001B5E
:1040400000959DED260B51EC100BFCF7E7F99DED6B
:10405000000B41EC1A0B53EC102B9DED260B51EC91
:10406000100BFCF7D5F99DED061B53EC112B2FE03F
:10407000000000604715F73FFE822B654715F73FAC
:1040800044DF5DF80BAE543E0000000000004043EA
:104090008E9803007AB60B00924A0000C04A0000D6
:1040A000CA490000000000000000000000000840B5
:1040B000000000E009C7EE3FFD033ADC09C7EE3F10
:1040C000F5015B14E02F3EBE56480000104800008A
:1040D000FCF7A4F953EC1A2BFCF7F9F89DED060B4D
:1040E00041EC1A0B53EC102B9DED000B51EC100B17
:1040F000FCF794F9CDE90C019DED0C0B51EC1A0B7A
:1041000053EC102BFCF7E3F8CDE902010C46AA4969
:104110008C422FDB611A084318D19DED0C0B53EC38
:10412000102B9DED020B51EC100BFCF771F941ECDB
:104130001B0B9FEDA30B51EC1A0B53EC102BFCF750
:10414000C6F853EC1B2BFCF77BFA2DD2022000F0B3
:104150003BFA00F009FA10EE901A18EE900A8DED75
:10416000020B8DED008B61F31E0003909DED020BA1
:10417000FFF7BEBB944A24F00041914214D3934907
:10418000214408437FF4EFAC9DED0C0B53EC102B56
:104190009DED020B51EC100BFCF73AF953EC1A2B86
:1041A000FCF74EFA7FF6DFAC24F000408849894ADC
:1041B000002601EB205182422BDA481C4FF480117B
:1041C00021FA00F02044844AC0F30A517A44A1F253
:1041D000FF3192ED000B814A8DED080BCA4020EAB9
:1041E0000202C0F3130040F48010C1F1140120FA60
:1041F00001F60992002CB8BF76429DED080B53ECF6
:10420000102B9DED0C0B51EC100BFCF701F9CDE9D7
:104210000C019DED0C0B51EC1A0B53EC102BFCF721
:1042200056F89FED6F0B0890CDE9085153EC102B19
:104230009DED080B51EC100BFCF7F0F841EC1B0B5B
:104240009FED690B53EC102B9DED080B51EC100BFF
:10425000FCF7E4F89DED0C0B41EC1C0B53EC102B20
:104260009DED080B51EC100BFCF7D2F853EC1A2B18
:10427000FCF7D1F89FED5E1B53EC112BFCF7CEF849
:1042800053EC1C2BFCF723F841EC1A0B51EC1B0BE5
:1042900053EC1A2BFCF71BF8CDE902019DED020B44
:1042A00053EC1B2B51EC100BFCF7B2F853EC1A2B10
:1042B000FCF7B1F89DED020B41EC1A0B53EC102BFF
:1042C00051EC100BFCF7AAF8CDE908014A489DED26
:1042D000080B0521784400F097F89DED081B51EC80
:1042E000100B53EC112BFCF799F89DED021B53ECCE
:1042F000112BFCF790F8CDE906019DED020B53EC74
:104300001A2B51EC100BFCF789F853EC1A2BFBF726
:10431000DEFF9FED3B0B41EC1A0B53EC102B9DED98
:10432000060B51EC100BFCF773F89DED060B41ECFE
:104330001B0B53EC102B9DED020B51EC100BFCF7FB
:104340006DF853EC1B2BFCF7DBF853EC1A2BFCF746
:104350005FF89DED021B53EC112BFCF759F853EC61
:10436000192BFCF758F8CDE9020101EB06500115B5
:104370000029C8BF039015DC9DED020B324651ECBD
:10438000100BFCF74AFAFFF7FDF9042808BF00F00C
:10439000FBF832469DED020B51EC100BFCF73DFA99
:1043A000CDE902019DED020B51EC180B53EC102BE3
:1043B000FCF734F8FFF73ABB000090400000000023
:1043C000FE822B654715973C00CC904000346F3F30
:1043D00001FCFFFF0000E03F98460000FFFF0F00D8
:1043E00000000000432EE63F396CA80C615C20BE43
:1043F000EF39FAFE422EE63F68450000000000005B
:10440000000000000000004070B504462DED028B56
:104410004D1E00EBC500B0EE408AF0EE608A90EDD4
:10442000000B35F0060017D053EC182B51EC100B95
:10443000FBF7F4FF41EC100B6D1E04EBC50090ED93
:10444000001B51EC100B53EC112BFBF740FF41EC20
:10445000100B35F00600E7D1022D36D0042D1CD00C
:10446000062D1CBFBDEC028B70BD53EC182B51EC1C
:10447000100BFBF7D3FF94ED0A1B53EC112BFBF74A
:1044800026FF53EC182BFBF7C9FF94ED081B53ECE8
:10449000112BFBF71CFF41EC100B53EC182B51ECCC
:1044A000100BFBF7BBFF94ED061B53EC112BFBF736
:1044B0000EFF53EC182BFBF7B1FF94ED040B53ECFC
:1044C000102BFBF704FF41EC100B53EC182B51ECB5
:1044D000100BFBF7A3FF94ED021B53EC112BFBF722
:1044E000F6FE53EC182BFBF799FF94ED001B53ECF1
:1044F000112BFBF7ECFEBDEC028B41EC100B70BDF9
:104500009FED070B10B553EC102B9FED070B51ECF3
:10451000100BFBF7F5FF41EC100B10BD0000000085
:104520000000000000000000000000000000F03F5C
:1045300010B553EC112B51EC100BFBF7C8FE41ECFE
:10454000100B10BD000000009FED050B10B553ECE3
:10455000102B51EC100BFBF7D3FF41EC100B10BDEF
:1045600000000000000000009FED050B10B553ECAB
:10457000102B51EC100BFBF751FF41EC100B10BD51
:1045800000000000000000709FED050B10B553EC1B
:10459000102B51EC100BFBF741FF41EC100B10BD41
:1045A000000000000000001002E008C8121F08C14F
:1045B000002AFAD170477047002001E001C1121FA4
:1045C000002AFBD1704700000149086070470000D5
:1045D000F80000202DE9FF5F82B00021DDE9043002
:1045E000020DDDF840B0034318D044F61050A2F29B
:1045F000FF3242431514119801281FD0A5EB0B0080
:10460000401C5FEA000A4FF000064E4FDFF8389179
:10461000B046504615D5CAF1000413E011980124A4
:104620004AA3012801D16FEA0B010298119AC0E94F
:104630000031C0E9024206B0BDE8F09FCBF10000B6
:10464000DFE704460021404A491842EB0450CDE917
:10465000001012E0E00707D032463B46404649468C
:10466000FBF7DCFE8046894632463B46104619463B
:10467000FBF7D4FE06460F466410002CEAD1DDE9B4
:104680000401DDE90023BAF1000F06DAFBF7C6FEEC
:1046900042464B46FBF7C2FE05E0FBF731FF4246C0
:1046A0004B46FBF72DFF04460E460022284BFBF736
:1046B000C7FF03D84FF0FF30014607E00022254B2B
:1046C00020463146FBF703FEFCF7BEF8102409E054
:1046D000002C0ADB0A220023FBF7E0FF039B3032A9
:1046E0001A55641E50EA0102F2D1641C039AC4F107
:1046F00011031444119A012A03D0012208430DD159
:104700000AE0084304D000204FF0110B119072E72B
:10471000A3EB0B056D1E0DE05B4504DD4FF00002C1
:1047200005F1010504E003DA4FF00002A5F10105EF
:10473000002AECD002981199C0E90231C0E9004585
:1047400079E70000000014400000F03F3000000056
:104750000000F0430000E03F2DE9FF4F95B09A467E
:10476000884606460025EEE1252877D10024274615
:10477000F94A0121039400E0044316F8013F203B6D
:1047800001FA03F01042F7D130782A2811D06FF0E7
:104790002F033078A0F13002092A16D8039A44F08A
:1047A000020402EB820203EB42021044761C0390E7
:1047B000EFE758F8042B0392002A03DA504244F43E
:1047C0000054039044F00204761C30782E2816D151
:1047D00016F8010F44F004042A280DD06FF02F02C0
:1047E0003078A0F13003092B09D807EB870302EBDF
:1047F0004303C718761CF3E758F8047B761C30781F
:104800006C280FD006DC4C2817D068280DD06A28F9
:1048100014D104E0742810D07A280FD10DE044F4AC
:1048200000140AE044F4801401E044F44014727867
:10483000824202D104F58014761C761C30786628FA
:104840000BD013DC582877D009DC002875D0452818
:10485000F6D04628F4D047281AD193E118E063280F
:1048600035D0642879D0652812D18BE1702873D0B7
:1048700008DC6728F1D069286FD06E280DD06F282A
:1048800006D1ACE073282CD0752874D0782853D08A
:104890005246179990476D1C54E1C4F30250022808
:1048A00009D003280DD0D8F8001004280DD00D60D1
:1048B00008F1040846E1D8F80010EA17C1E90052EF
:1048C000F6E7D8F800100D80F2E70D70F0E718F861
:1048D000041B8DF8001000208DF80100EB4601202C
:1048E00003E058F804BB4FF0FF3061074FF00001C0
:1048F00002D40DE009F101018946B9420FDA814580
:10490000F8DB1BF809100029F4D108E009F10101D6
:1049100089468142FADB1BF809100029F6D1039879
:104920005346A0EB090721463846179A00F080FA53
:10493000284400EB090507E044E008E10DE01BF81E
:10494000010B524617999047B9F10109F7D2534626
:1049500021463846179AF2E039E00A21C4F30252A0
:104960004FF0000B0091022A06D058F8040BC11733
:10497000032A09D00AE023E008F1070020F007022B
:10498000F2E80201904605E000B2C117042A01D105
:1049900040B2C117002906DA0A460021404261EB05
:1049A00002012D2202E0220504D52B228DF80420DD
:1049B000012203E0E20701D02022F7E7914657E009
:1049C0000A2100E010214FF0000B00910BE01021B4
:1049D0004FF0000B44F004040827009103E0082086
:1049E0004FF0000B0090C4F30252022A05D058F891
:1049F000040B0021032A08D008E008F1070020F08A
:104A00000702F2E80201904603E080B2042A00D1D6
:104A1000C0B24FF0000922072AD53278702A07D099
:104A2000DDF800C08CF0100C5CEA0B0C05D00EE039
:104A300040228DF80420012208E050EA010306D04C
:104A400030238DF804308DF8052002229146009B1A
:104A500083F0080353EA0B030AD150EA010201D1A3
:104A6000620705D530228DF804204FF001097F1E22
:104A70003278582A04D039A20C920CAA02920BE088
:104A80003BA2F9E75B46009AFBF708FE0C9B9B5C98
:104A9000029A521E0292137050EA0102F2D1029859
:104AA00004A9081A00F1200B600702D524F4803411
:104AB00000E001275F4502DDA7EB0B0000E00020CE
:104AC00000EB0B01009003984944401A0390E00367
:104AD00006D453462146179A039800F0A9F90544D5
:104AE000002706E001A85246C05D179990476D1C4B
:104AF0007F1C4F45F6DBE0030CD553462146179A41
:104B0000039800F095F9054404E0302052461799C7
:104B100090476D1C0099481E00900029F5DC08E0C4
:104B20000298029952460078491C029117999047C1
:104B30006D1CBBF10001ABF1010BF1DC5BE100F09E
:104B400065F90544761C307800287FF40DAE19B065
:104B50002846BDE8F08F00000928010030313233CB
:104B600034353637383961626364656600000000A9
:104B70003031323334353637383941424344454693
:104B800000000000600700D4062708F1070020F0AD
:104B90000700F0E80223804603F0004C5FEA0C00B7
:104BA00001D097A009E0200501D596A005E0E00717
:104BB00001D095A001E0AFF24C001390307823F0C3
:104BC000004365280CD006DC452809D046281DD0B6
:104BD00047287FD13BE0662818D067287AD136E095
:104BE0000021112F01DB112000E0781CCDE900012C
:104BF00004A90CA8FFF7EEFCDDE90D010C9A4FF0BB
:104C0000000B07F10109109200914EE04FF00040B7
:104C10000097CDE9011004A90CA8FFF7DBFCDDE942
:104C20000D020C9B0F994FF0000B914610930092D0
:104C300011B9791C00EB0109B7EB090003D4C0F1ED
:104C4000FF3B07F10109A9EB0700019042E0012FAA
:104C500000DA01270021112F01DD112000E0384684
:104C6000CDE9000104A90CA8FFF7B4FCDDE90D01B2
:104C70000C9A00914FF0000BB946109221070FD407
:104C8000009A4A4503DA914601E0A9F10109B9F118
:104C9000010F05DD109AA9F10101515C3029F4D012
:104CA000B84202DA10F1040F03DA0121CDE9011054
:104CB00010E0002803DC8344A9EB000102E0411C62
:104CC000494500DD8946A0EB0B00401C01904FF0E8
:104CD00000400290200705D40198484502DB4FF0C0
:104CE000FF30019000208DF84B0002980DF14B072A
:104CF000B0F1004F25D002200C902B200D9002988F
:104D000000280CDA404202902D200D9007E00A2185
:104D10000298FBF7ADFC3031029007F8011D0C99A9
:104D2000481E0C900029F2DC02980028EFD1791E71
:104D30000D980870307800F0200040F0450007F82A
:104D4000020D11A8C01BC01D02901398007800B17D
:104D5000012000EB0901019801EBE0710298014488
:104D60000398401A401E0390E00306D453462146A0
:104D7000179A039800F05CF805441398007818B16E
:104D80005246179990476D1CE00323D553462146A0
:104D9000179A039800F04CF805441BE0BBF1000F94
:104DA00007DB0098584504DD1098179910F80B00A0
:104DB00001E0179930205246904701980BF1010B02
:104DC000401E05F10105019004D12E20524617998D
:104DD00090476D1CB9F10001A9F10109DEDC05E085
:104DE00017F8010B5246179990476D1C0299481EFF
:104DF00002900029F4DC53462146179A03989EE658
:104E00002D0000002B000000200000002DE9F041E3
:104E1000044600251E461746880404D405E039469A
:104E20002020B0476D1C641EF9D52846BDE8F081EE
:104E30002DE9F041044600251E469046C80301D5E1
:104E4000302700E02027880404D505E04146384695
:104E5000B0476D1C641EF9D52846BDE8F0814A684C
:104E6000002A06D00A68531C0B6010704868401E68
:104E7000486070470A68531C0B601070704710B58B
:104E8000FCF7AAF9142000F0E9F8BDE8104001F0A1
:104E9000EDB800002DE9F047244C00208146A080A9
:104EA00004F10E0504F12806A71D04F1180880B2CC
:104EB00037F8101058F82000FCF725F9142000F0FE
:104EC000CDF84846A4F8029080B235F8101056F894
:104ED0002000FCF711F9A8B16088401C80B2608006
:104EE0000428F1D3A08837F8101058F82000FCF7F8
:104EF0000CF9A088401C80B2A0800428D7D31120D0
:104F0000BDE8F0870948A188383000EB810061884E
:104F1000405C2070608835F8101056F82000FCF7CF
:104F2000EBF80028F6D02078EAE700008C0000209B
:104F300070B504460F4E19E0A0892568C0050AD453
:104F4000A06820B1FFF7F4FFA089C00503D4206951
:104F500008B171688847A089800503D4206A08B128
:104F6000716888477168204688472C46002CE3D139
:104F700070BD00002800002070B50D46846800E078
:104F800024682CB12946206A00F046F80028F7D1A1
:104F9000204670BD054910B50968282088470400DF
:104FA00002D02821FBF72DF9204610BD2800002053
:104FB00000221146AFF300802DE9F04190460E46E5
:104FC0000446FFF7E7FF134F05004FF00000B860FD
:104FD00015D0204601F05DF80146284600F070FE2D
:104FE00004000FD0B8F1000F10D0204601F051F8A6
:104FF0000446007850B12846FFF79AFFBC600020B5
:10500000BDE8F0812846FFF793FFF8E706B134606A
:105010002846F5E72800002070B504000D4601D0B1
:105020000DB108E009B1012070BD002070BD00285D
:10503000FCD0641C6D1C2078FBF7C4F80646287869
:10504000FBF7C0F886422078F1D0FBF7BBF80446A6
:105050002878FBF7B7F8201A70BD000070B50B4A2E
:1050600000244FF0E0214FF47A750526136808E01C
:10507000B3FBF5F2521E4A618C610E610A69D203DC
:10508000FCD5401E0C61F3D270BD00000000002072
:1050900010B54FF0E02100220A61084B084C1B6854
:1050A000B3FBF4F343435B1E4B618A610520086147
:1050B0000869C003FCD50A6110BD00000000002093
:1050C00040420F0010B5124C00F054FE00F0AEFA52
:1050D00000F0A0FE207023280CD02A28F4D100F084
:1050E000F9FA00F097FE00F06FFE01280DD000F0F5
:1050F0004CFFE9E700F068FE012802D000F010FF45
:10510000E2E7BDE8104000F0E9BE00F027FFDBE772
:105110001400002082B0CDE9000121F00040019090
:105120009DED000B02B051EC100B704770B5074DB0
:10513000044681B22846FEF775F980212846FEF71D
:10514000D8F80028F9D0204670BD000000100140BA
:1051500010B5002821D0114B0022001F196803E070
:10516000814203D80A4649680029F9D152B113682F
:10517000841A9C4204D1006818441060104602E072
:10518000506000E0186039B102680B1A934203D1F5
:105190000B681A4402604968416010BDF0000020AD
:1051A0002DE9F0411D461646884607460024FCF7C7
:1051B000DDF83846FCF7B4F8FCF708F94046FCF790
:1051C000AFF8FCF703F9FCF7D1F847F00100FCF762
:1051D000A7F8FCF7FBF8771E08E0BC4201D10020DD
:1051E00000E00120FCF76EF82855641CB442F4DBA3
:1051F000BDE8F041FCF7D2B870B515460E4604463E
:10520000FCF7B4F82046FCF78BF8FCF7DFF83046E3
:10521000FCF786F8FCF7DAF82846FCF781F8FCF78B
:10522000D5F8BDE87040FCF7B9B800002DE9FC41A5
:1052300001210846FDF708FC01210220FDF704FCCE
:1052400001210420FDF700FC01211020FDF7FCFBEB
:1052500001214020FDF7F8FB01248DF804400025D2
:105260000F208DF806500326104F00908DF8056032
:105270008DF8074069463846FBF7F2FEF0208DF8BE
:10528000045000908DF805608DF807406946384657
:10529000FBF7E6FE0648C0F88042C0F88442C0F83A
:1052A0008842C0F88C42BDE8FC810000000002404A
:1052B000000040421CB501213020FDF7C5FB4FF432
:1052C000C060012400908DF8044000208DF8060095
:1052D00003218DF805108DF8070069460A48FBF791
:1052E000BFFE4FF4C040009069460848FBF7B8FE87
:1052F0000748C0F8A442C0F8A8420648C0F8B44223
:10530000C0F8B8421CBD000000140240001002406A
:1053100000804242000042424FF4A060FCF7A6FC2D
:10532000FBF710FFFFF7ABFD0520FDF761FB0A203F
:10533000FFF794FE10231FA201210A20FCF7B6FDFF
:1053400020A0FEF7E1F9FBF777FDFCF799FC22A01E
:10535000FEF7DAF9102324A201210A20FCF7A6FDAA
:10536000102326A201210A20FCF7A0FDFCF788FCEF
:105370004FF4FA7402E02046FFF770FEFCF7A8FE37
:105380000028F8D121A0FEF7BFF9102324A20121A3
:105390000A20FCF78BFDFCF72DFE00F0BBFE244C31
:1053A000FFF778FD2070412801D1FFF78BFE00F058
:1053B000E1FEF5E7455350383236365F494E4954E1
:1053C0002E2E2E00455350383236365F494E495402
:1053D0002E2E2E0A00000000383236365F494E4924
:1053E000545F454E440A0000455350383236365F0C
:1053F000494E49545F454E44000000004C696E6BB5
:10540000206F6E656E65742E2E2E0000E68EA5E56B
:1054100085A56F6E656E6574E68890E58A9F0000CD
:105420004C696E6B206F6E656E65742041430000A1
:1054300014000020F0B50B30154D20F007010024BA
:10544000144A0FE003688B420BD38B4205D95E1AD6
:1054500043184768C3E9006700E04368136002C06F
:1054600004E0021D10680028ECD12046002802D17B
:10547000286808B10020F0BD064A07481060074AB6
:10548000121A22F00702C0E9002401202860D7E7A1
:10549000F4000020F0000020DC070020D8170020D6
:1054A00070B50646002529460020FCF7A5FC00241F
:1054B0003046FEF712F9641CE4B2802CF8D36D1C60
:1054C000EDB2082DEFD370BD10B50020FFF7E8FF57
:1054D0000523002201210A2000F064F8012205239F
:1054E00011461E2000F05EF8052302220121322021
:1054F00000F058F8052303220121462000F052F85D
:105500000523042201215A2000F04CF80523012133
:10551000BDE810401A466E2000F044B82DE9FF5F48
:10552000203A1D468B46D7B24FEAD308580701D020
:1055300008F1010800264FEA550928E00BEB0600A8
:10554000C1B20098FCF758FC19FB06F0C4B2761CF7
:1055500019FB06FA18E00C2D04D0102D06D0182DDA
:1055600008D00FE007EB47000B4906E00B4800EBC3
:10557000071004E00A4907EBC70001EB8000005D5B
:10558000FEF7ABF8641CE4B2A245E4D8F6B2464597
:10559000D4D3BDE8FF9F00001D700008917400087F
:1055A000817A00082DE9F05F9846154689468346C2
:1055B00000264FF6FF7A09EB0600C1B25846FCF709
:1055C0001BFC37010AEA0614103713E0B8F1070F85
:1055D0000ED2DFE808F0040617191C1E21000F4840
:1055E00001E00E48C03000EB4510005DFEF775F895
:1055F000641CA4B2A742E9D8761CB6B2022EDAD354
:10560000BDE8F09F0648EEE705488030EBE7054827
:10561000E9E70448C030E6E70348E4E77D6B0008AB
:10562000BD6C0008FD6D00087D6F000810B50020FE
:10563000FFF736FF00231A4601210A20FFF7B2FFC9
:105640000122002311461E20FFF7ACFF0023022297
:1056500001213220FFF7A6FF00230322012146206B
:10566000FFF7A0FF0023042201215A20FFF79AFF31
:1056700010233A220121BDE810406E20FFF74EBFF3
:1056800010B50020FFF70CFF0423002201210A209F
:10569000FFF788FF0122042311461E20FFF782FF37
:1056A0000423022201213220FFF77CFF042303227E
:1056B00001214620FFF776FF04231A4601215A20D4
:1056C000FFF770FF042305220121BDE810406E2082
:1056D000FFF768BF10B50020FFF7E2FE03230022AA
:1056E00001210A20FFF75EFF0122032311461E203D
:1056F000FFF758FF0323022201213220FFF752FF58
:1057000003231A4601214620FFF74CFF03230422FE
:1057100001215A20FFF746FF032305220121BDE89E
:1057200010406E20FFF73EBF10B50020FFF7B8FE17
:105730000123002219461420FFF734FF01231A46E3
:1057400019462D20FFF72EFF01230222194646207D
:10575000FFF728FF01230322BDE8104019465F2010
:10576000FFF720BF10B50020FFF79AFE06230022A6
:1057700001210A20FFF716FF0122062311461E20F1
:10578000FFF710FF0623022201213220FFF70AFF54
:105790000623032201214620FFF704FF06230422EB
:1057A00001215A20FFF7FEFE10233A220121BDE815
:1057B00010406E20FFF7B2BE10B50020FFF770FE5C
:1057C0000223002201211420FFF7ECFE0122022314
:1057D00011462D20FFF7E6FE02231A46012146203E
:1057E000FFF7E0FE022303220121BDE810405F2005
:1057F000FFF7D8BE2DE9F041074608781E4E5B281A
:1058000001D0B16032E00520F860481C00F041FC96
:10581000044600785D282CD0FFF7BCFB051EB8605D
:1058200025D0204600F035FC0146284600F048FA15
:1058300000F02FFC041E1AD011E0FFF7ABFB00288C
:1058400015D0286045600546601C00F022FC01462A
:10585000284600F035FA00F01CFC040006D0207841
:105860002C28EAD020785D2803D0B4600020BDE861
:10587000F081601CFBE70000280000200178A1F106
:105880003002092A01D811460AE0A1F14102052A95
:1058900001D8373904E0A1F16102052A3FD8573910
:1058A0000A0110F8011FA1F13003092B01D8303A89
:1058B0000AE0A1F14103052B01D8373A04E0A1F138
:1058C0006103052B2BD8573A11440A0110F8011F28
:1058D000A1F13003092B01D8303A0AE0A1F14103CC
:1058E000052B01D8373A04E0A1F16103052B16D846
:1058F000573A114440780901A0F13002092A01D831
:10590000303904E0A0F14102052A02D837390844B1
:105910007047A0F16102052A01D85739F7E7002046
:10592000704700002DE9F04106462DED0C8B0C462A
:105930009FED578B9FED58DB087800250127B0EECF
:105940004DBAF0EE6DBAB0EE489AF0EE689A2D2896
:1059500002D19FED53BB4C1C2078302800D1641C31
:1059600020789FED51CB313808281AD814F8010B54
:105970003038FAF734FE41EC1A0BB0EE4C0AF0EE78
:105980006C0A53EC102B51EC180BFAF747FD53EC53
:105990001A2BFAF79CFC41EC180B207830380928B8
:1059A000E4D920782E2828D16078302843D33928AC
:1059B00041D8641C14F8010B3038FAF710FE41ECA2
:1059C0001A0BB0EE4C0AF0EE6C0A53EC102B51ECB3
:1059D000180BFAF723FD53EC1A2BFAF778FC41EC7D
:1059E000180B53EC1D2B51EC190BFAF711FD41EC80
:1059F000190B207830380928DCD92078652801D0A7
:105A0000452818D114F8010F2B2802D02D280FD0CB
:105A100000E0641C6FF02F012078A0F13002092A09
:105A200009D805EB850201EB42028518641CF3E7F7
:105A30004FF0FF37EDE705FB07F0FAF7D0FD53EC29
:105A4000192BFAF744FC41EC110BB0EE4C0AF0EEC6
:105A50006C0AFDF7B1FEB0EE409AF0EE609A53EC9E
:105A6000182B51EC1B0BFAF7D9FC53EC192BFAF756
:105A7000D5FC41EC100B86ED060BFAF7C1FD706109
:105A80000320F0602046BDEC0C8BBDE8F0810000E7
:105A90000000000000000000000000000000F03FD7
:105AA000000000000000F0BF0000000000002440E3
:105AB0002DE9F04107460878294E7B2801D0B160D6
:105AC00030E00620F860481C00F0E3FA0546007854
:105AD0007D2843D0FFF75EFA041EB86023D0284625
