:020000040800F2
:10000000F8570020A1010008D3210008251400089A
:10001000D1210008110D0008CD38000800000000B3
:100020000000000000000000000000004D32000849
:10003000C10F000800000000892F0008C534000827
:10004000BB010008BB010008BB010008BB010008A0
:10005000BB010008BB010008BB010008BB01000890
:10006000BB010008BB010008BB010008BB01000880
:10007000BB010008BB010008BB010008BB01000870
:10008000BB010008BB010008BB010008BB01000860
:10009000BB010008BB010008BB010008BB01000850
:1000A000BB010008BB010008BB010008BB01000840
:1000B00025350008BB010008BB010008BB01000892
:1000C000BB010008BB010008BB010008BB01000820
:1000D000BB0100087D360008BB010008E1360008BE
:1000E000BB010008BB010008BB010008BB01000800
:1000F000BB010008BB010008BB010008BB010008F0
:10010000BB010008BB010008BB010008BB010008DF
:10011000BB010008BB010008BB010008BB010008CF
:10012000BB010008BB010008BB010008BB010008BF
:10013000BB010008BB010008BB010008BB010008AF
:10014000BB010008BB010008BB010008BB0100089F
:10015000BB010008BB010008BB010008BB0100088F
:10016000BB010008BB010008BB010008BB0100087F
:10017000BB010008BB010008BB010008BB0100086F
:10018000BB010008BB010008DFF810D000F0E8FB5D
:100190000048004799590008AFF30080F857002045
:1001A0000648804706480047FEE7FEE7FEE7FEE711
:1001B000FEE7FEE7FEE7FEE7FEE7FEE7C9340008DC
:1001C00089010008A0F14101192900D820307047A9
:1001D00040EA01039B0703D009E008C9121F08C0C9
:1001E000042AFAD203E011F8013B00F8013B521E49
:1001F000F9D27047D2B201E000F8012B491EFBD2C0
:1002000070470022F6E710B513460A460446194621
:10021000FFF7F0FF204610BD421E12F8013F002BF1
:10022000FBD111F8013B02F8013B002BF9D17047DB
:1002300030B505462A460B4612F8010B13F8014B60
:1002400008B1A042F8D01CB1002802D06D1CF1E723
:10025000284630BDCAB2401E10F8011F8A4202D0A3
:100260000029F9D100207047421C10F8011B002919
:10027000FBD1801A704710B5044600E0401C03789B
:10028000002BFBD100E0401C521E04D311F8013BAF
:100290000370002BF7D100210170204610BD0346EA
:1002A00011F8012B00F8012B002AF9D118467047EC
:1002B00030B505460020034600E05B1C934205D2A2
:1002C000EC5CC85C201A01D1002CF6D130BD2DE9C0
:1002D000FE4F804681EA0300C00F0C46009021F0DB
:1002E000004123F00045B8EB0200A94105D2404689
:1002F000214690461C460B46024623F00040104320
:1003000047D0270DC7F30A00C3F30A510290401AE1
:10031000019040286BDAC3F3130040F4801B00986F
:10032000924620B10023D2EB030A63EB0B0B01983A
:100330005946C0F14002504600F01DFA06460D46EF
:1003400050465946019A00F035FA10EB0800614119
:10035000002487EA115284EAE7731A4340D0009AD6
:1003600062B3019A012A4FEA075215DC001B61EBC8
:1003700002014FF0004202EA0752CDE90042001CA0
:1003800041F5801132462B4600F06CFA03B0BDE80F
:10039000F08F40462146F9E7001B61EB0201001C8B
:1003A00041F5801300185B412018A2F5001747EBB8
:1003B000030140EAD570B6196D4111E06D084FEAAE
:1003C000360645EAC0754FEA0752001B61EB020191
:1003D000001C41F5801149084FEA300000195141D5
:1003E00032462B4603B0BDE8F04F00F02CBA00981F
:1003F000012240000023D0EB020263EBE07300987F
:1004000021464FEAE074B8EB000061EB0401E9E734
:1004100083F000435BE781F0004158E72DE9FE4F90
:1004200081EA030404F0004421F0004100944FF0FD
:10043000000B23F0004350EA01045ED052EA0304AB
:100440005BD0C3F30A54C1F30A552C44A4F2F3342D
:100450000194A0FB0254C1F3130141F48011C3F3D2
:10046000130343F4801301FB024400FB034E840A90
:10047000970A44EA815447EA8357A4FB0768029528
:100480008D0A05FB07854FEA932C04FB0C542705C6
:10049000029D4FEA065847EA1637B5EB08056EEBA2
:1004A000070C870E920E47EA811742EA8312A7FBD8
:1004B0000201B6EB0B0164EB00042B0D43EA0C3395
:1004C0005E1844EB1C50DA465146E7FB0201C5F3C7
:1004D00013044FEA0B3343EA14534FEA0432019CEE
:1004E00043EA0603A4F10C040294009CCDE900B495
:1004F00000F0B8F903B0BDE8F08F00200146F9E73D
:100500002DE9F04D81EA030404F0004B21F0004591
:1005100014464FF0000A23F0004150EA050220D0B3
:1005200054EA01021DD0C5F30A570246C5F313036E
:10053000C1F31300C1F30A5640F4801543F480134D
:10054000A7EB0608101BD64608F2FD3873EB050032
:1005500002D308F1010801E092185B41B8F1000FE5
:1005600003DA00200146BDE8F08D00204FF4801131
:10057000064684460EE0171B73EB050705D3121BD6
:1005800063EB050306434CEA010C49084FEA3000CF
:1005900092185B4150EA0107EDD152EA030012D0F4
:1005A00082EA040083EA0501084305D0101BAB4131
:1005B00006D20122002306E000224FF0004302E0B1
:1005C0006FF0010253101AEB06004CEB085110EBD0
:1005D0000A0041EB0B01BDE8F04D00F034B90EB557
:1005E000C10F80EAE0700844CA07002140F233439B
:1005F0008DE80E000A460B4600F034F903B000BD4A
:100600000EB540F2334102910021CDE900110A46B6
:100610000B4600F027F903B000BD70B5C1F30A52D4
:1006200001F000450024C1F3130140F2FF3341F40F
:1006300080119A4201DA002070BD40F233439A42A1
:10064000A2F2334203DC524200F0A4F800E09040F2
:100650002C43F1D0404270BD00F0004230F0004029
:100660000AD0C10D01F56071C0F3160042EA0151D4
:10067000C208400711437047002001467047000040
:1006800030B5041E71F1000404DB4FF00044404219
:1006900064EB0101141E73F1000405DB1C464FF0EE
:1006A0000043524263EB0403994208BF904230BDBD
:1006B00001F0004330B421F0004150EA010206D0BD
:1006C0000A0DA2F56072C1F31301002A02DC30BCEE
:1006D00000207047440F44EAC104C100E01830BC58
:1006E00000EBC25000F078B830B50B460146002050
:1006F0002022012409E021FA02F59D4205D303FAE4
:1007000002F5491B04FA02F52844151EA2F1010264
:10071000F1DC30BD2DE9F05F0546002092469B4696
:1007200088460646814640241BE028464146474607
:10073000224600F02FF853465A46C01A914110D372
:1007400011461846224600F016F82D1A67EB0108EC
:100750004F4622460120002100F00DF817EB00095A
:100760004E41201EA4F10104DFDC484631462A46F2
:100770004346BDE8F09F202A04DB203A00FA02F14C
:10078000002070479140C2F1200320FA03F319437F
:1007900090407047202A04DB203A21FA02F0002121
:1007A000704721FA02F3D040C2F120029140084381
:1007B00019467047202A06DBCB17203A41FA02F08F
:1007C00043EAE07306E041FA02F3D040C2F12002AE
:1007D00091400843194670470029A8BF7047401C44
:1007E000490008BF20F00100704710B4B0FA80FC47
:1007F00000FA0CF050EA010404BF10BC704749B184
:10080000CCF1200421FA04F411FA0CF118BF0121F3
:1008100021430843A3EB0C01CB1D4FEA00614FEAD3
:10082000102042BF002010BC704700EBC3501044A2
:100830000029A4BF10BC7047401C490008BF20F02D
:10084000010010BC704710B5141E73F1000408DAE3
:10085000401C41F1000192185B411A4301D120F084
:10086000010010BD2DE9F04D92469B4611B1B1FA41
:1008700081F202E0B0FA80F220329046FFF77BFF6F
:1008800004460F4640EA0A0041EA0B0153465A4625
:10089000084313D0114653EA010019D0C8F14002B1
:1008A0005046FFF777FF05460E46504659464246EA
:1008B000FFF761FF084305D0012004E020463946D8
:1008C000BDE8F08D0020054346EAE0762C4337432F
:1008D0000A986305E40AA0EB08000022FD0A44EA36
:1008E00047540A3002D500200146E9E701051019F6
:1008F0006941DDE9084500196941BDE8F04DA2E70D
:1009000070B521F0004303430CD0C1F30A55002415
:10091000D5EB040564EB0403D617AD1AB34102DB33
:100920000020014670BD201841EB025170BDC1F39B
:100930000A52C1F3130140F2FF3341F480119A428D
:1009400002DA00200146704740F233439A42A2F295
:10095000334202DC5242FFF71DBFFFF70CBF00001D
:10096000064C074D06E0E06840F0010394E80700FC
:1009700098471034AC42F6D3FFF70AFC448F0008C6
:10098000648F00082DE9F04D00231A461B1A8A4196
:1009900003DB00200146BDE8F08DC1F30A52C1F32C
:1009A000130141F480154FF0000BD10702D100185C
:1009B0006D41521E0027044640F2FF11384601EBFC
:1009C000620A3E468046024600204FF48011FFF73F
:1009D000E1FEC2197141BB1846EB0100B4EB030CF8
:1009E00075EB000C04D3E41A65EB000517460E46C0
:1009F000241908F101006D4180463428E3DDF9191E
:100A000046EB0600091BA84103D24FF0FF32134604
:100A100001E0002213461BEB070046EB0A51BDE83C
:100A2000F04DFFF710BF00002DE9F0479CB0082003
:100A300005F032F8494D286010B949A003F0BEF81E
:100A400028680024012104604460022002F0C8FAF2
:100A50000121042002F0C4FA4FF4807801214046BD
:100A600002F0D6FA0121880502F0BAFA03268DF8C1
:100A7000586015968DF85B4015A93D4800F0F4FBD1
:100A8000062015908DF858608DF85B4015A93948FF
:100A900000F0EAFB4FF48036CDE91864179417A8EC
:100AA0001A9400F077F801208DF84000DFF8C89024
:100AB0000F948DF841000427119413948DF8507011
:100AC0000FA9484600F090F8072301220821484664
:100AD00000F0B0F8072302220921484600F0AAF8E6
:100AE000072303220B21484600F0A4F80723042221
:100AF0000C21484600F09EF8DFF880A0504600F038
:100B0000A3F91D4802A94C30CDE90040286881E8CE
:100B10009100B011CDE90540400007908000CDE97B
:100B20000808CDE90A646946504600F01FFA012121
:100B3000504600F07FF90121484600F041F80121BC
:100B4000484600F047F80121484600F019F84846A9
:100B500000F0AAF81CB0BDE8F0870000600000209B
:100B6000E58886E9858DE5A4B1E8B4A5000000001C
:100B700000040240000802400020014010640240CE
:100B80000029816802D041F0010101E021F001015A
:100B900081607047084B10B5D3F8042307490A4019
:100BA000D0E900142143D0E902400443214311431A
:100BB000C3F8041310BD000000200140E030FCFF2A
:100BC0000029816802D041F4807101E021F4807134
:100BD000816070470029816802D041F4007101E012
:100BE00021F400718160704730B542680F4B0C7979
:100BF0001A400B6842EA04221343436082680C4B9C
:100C00004D791A40D1E9034323438C6844EA4504F3
:100C1000234313438360C26A097D22F47002491E94
:100C2000C9B242EA0151C16230BD0000FFFEFFFCC3
:100C3000FDF7FFC070B5072609290AD9C568A1F1DB
:100C40000A0404EB4404A640B543A3401D43C56019
:100C500007E0056901EB4104A640B543A3401D43ED
:100C600005611F23072A09D2446B521E02EB820240
:100C700093409C4391400C43446370BD0D2A09D2BC
:100C8000046BD21F02EB820293409C4391400C43C1
:100C9000046370BDC46A0D3A02EB820293409C4328
:100CA00091400C43C46270BD816841F08041816015
:100CB000704700001CB50121022002F0A9F9202094
:100CC000009001208DF8040000208DF806008DF8BA
:100CD000070002208DF805006946034800F0C4FAB9
:100CE000002000F003F81CBD0004024010B50446CB
:100CF000012807D000222021034800F00CFB034804
:100D0000047010BD0122F6E700040240A400002098
:100D1000FEE7000070B5002404F01AFD104D04E059
:100D2000641CE4B2012004F0F9FCD5F8240210B1EF
:100D3000642CF5D30DE0642C0BD2002404E0641C79
:100D4000E4B2012004F0EAFCD5F8240218B1642CC6
:100D500004D3012070BD642CF1D3FAE7002070BDEC
:100D6000000042421CB50121102002F039F94FF475
:100D70000070009001208DF804008DF8060003201B
:100D80008DF8050000208DF807006946034800F043
:100D90006BFA00F039F8FFF7BDFF1CBD00100240F0
:100DA00070B50024104D04E0641CE4B2012004F08E
:100DB000B5FCD5F8240208B1642CF5D3002404E076
:100DC000641CE4B2012004F0A9FCD5F8240208B99F
:100DD000642CF5D3282004F0A1FCD5F824020028C7
:100DE00000D0012070BD00000000424270B500201C
:100DF00004464006050EFFF7D3FF641C2843E4B207
:100E0000082CF6D370BD000010B504F0B7FC084CF8
:100E10000020C4F8A402142004F5297404F064FC32
:100E200001202060BDE810401E2004F077BC0000C7
:100E3000000042420029016802D041F0010101E0B6
:100E400021F00101016070472DE9F043016821F0B4
:100E5000010101600021016041608160C1600161A8
:100E6000212141613C493C4A3D251039904202D143
:100E70008D60BDE8F083384A4FF4746618329042B2
:100E800001D18E60F5E7344A4FF474173032904246
:100E900001D18F60EDE7304A4FF0746C48329042D8
:100EA00002D1C1F808C0E4E72B4B2C4A60339842CA
:100EB00001D1CA60DDE7284C294B7834A04201D12A
:100EC000CB60D6E7DFF89080264C08F190084045CB
:100ED00001D1CC60CDE7DFF880804FF03D5908F1BB
:100EE000A808404502D1C1F80C90C2E71E49DFF8BE
:100EF00078800839404501D10D60BAE71A4D1835A0
:100F0000A84201D10E60B4E7174D3035A84201D197
:100F10000F60AEE7144D4835A84202D1C1F800C0B9
:100F2000A7E7114D10496035091FA84201D10A6099
:100F30009FE70D4A7832904201D10B6099E70A4A47
:100F40009032904201D10C6093E7074AA832904258
:100F50008FD1C1F800908CE7106002403D00002066
:100F6000400F002000003D201064024030B50368AF
:100F7000124ACC6813400A682243D1E905452C4344
:100F80002243CC6922430C6A22434C6A22438C6A76
:100F900022434C6B22438C6B22431A43026042690A
:100FA00022F00703D1E90B2422431A4342610A6964
:100FB00042604A6882608968C16030BD3F801CF031
:100FC0007047000010B54FF480610348FFF719F92E
:100FD00002490020088010BD1801002054000020A4
:100FE00010B5044600F030F978B90C490CA002F0B5
:100FF000E5FD11A10948FFF71BF930B13A21FFF7D0
:1010000029F9002800D0401C10BD052004F06CFB1D
:101010002046641EA4B2E5D210BD000018010020D5
:1010200052617720455350383236362064617461FE
:101030003A2025730D0A00004950442C000000009E
:1010400010B5FFF7BFFF24A002F0B8FD4FF4FA740B
:1010500002E0204604F048FB21A122A000F0ACF8F9
:101060000028F6D121A002F0A9FD02E0204604F0FC
:101070003BFB1BA120A000F09FF80028F6D122A086
:1010800002F09CFD02E0204604F02EFB14A122A0F9
:1010900000F092F80028F6D123A002F08FFD02E0C4
:1010A000204604F021FB23A124A000F085F80028AD
:1010B000F6D129A002F082FD02E0204604F014FBE4
:1010C00029A12BA000F078F80028F6D1BDE8104047
:1010D00033A002F073BD0000312E2041540D0A00F0
:1010E0004F4B000041540D0A00000000322E2043F7
:1010F000574D4F44450D0A0041542B43574D4F4423
:10110000453D310D0A000000332E2041542B43573A
:10111000444843500D0A000041542B435744484370
:10112000503D312C310D0A00342E2043574A415096
:101130000D0A0000474F54204950000041542B43F2
:10114000574A41503D22323538222C223132333435
:1011500035363738220D0A00352E20434950535476
:101160004152540D0A000000434F4E4E4543540077
:1011700041542B43495053544152543D22544350FF
:10118000222C226D717474732E6865636C6F7564A4
:10119000732E636F6D222C313838330D0A00000036
:1011A000362E204553503832363620496E69742029
:1011B0004F4B0D0A0000000070B50D460646C824CE
:1011C000FFF752F882B231460B4802F080FB0EE086
:1011D00000F03AF840B929460848FFF729F818B155
:1011E000FFF7F0FE002070BD0A2004F07DFA641EB7
:1011F000E4B2EDD2012070BD00480040180100208B
:1012000030B589B00C460546FFF7DCFE224608A142
:10121000684602F0FDFC0AA16846FFF7CDFF0028F2
:1012200004D122462946074802F051FB09B030BDDF
:1012300041542B43495053454E443D25640D0A000B
:101240003E000000004800400649088828B14A884E
:10125000904204D1002008807047012070474880E8
:10126000FBE7000054000020F0B5002201274FF0FA
:10127000030C0B6807FA02F52B40AB422CD1066831
:1012800053000CFA03F4A64306600E79D0F800E090
:101290009E4046EA0E0606600E79012E01D0022E0F
:1012A00012D18668A64386604E79D0F808E09E4049
:1012B00046EA0E0686604668AE43466045688E790B
:1012C0009640B6B235434560C568A543C560CC7944
:1012D0009C40C3681C43C460521C102AC9D3F0BD93
:1012E0004B07DB0E9A40C90810B500EB8100016A7C
:1012F0000F249C40A1430162016A1143016210BDA9
:101300000246002012690A4200D001207047418342
:101310007047018370470AB101837047418370476A
:1013200010B5084CA07800280AD00020FFF758FE1E
:10133000206118B101F020FCFFF744FE0020A070EE
:1013400010BD0000F000002070B5274C2078002868
:1013500046D001F0A5FD25490025052841D00120F2
:101360000870234801F0A8FE60B12148214A0178A5
:101370001170214A41781170204A817811702049FA
:10138000C078087000F0B4FA1E4880ED000A00F042
:10139000E5F9BCEEC00A1C4910EE100A088000F006
:1013A00023FA00EE100A1948B8EE400A80ED000A50
:1013B00000F02CFA164880ED000A01F0F9FD1549FD
:1013C000154A08801146154803F0B2FF1348144926
:1013D00090ED000ABCEEC00A10EE100A08802570DD
:1013E00070BD0D70BDE70000F00000205A00002025
:1013F0001900002015000020160000201700002012
:1014000018000020240000201E00002028000020DA
:101410002C0000202000002034000020300000209C
:1014200022000020FEE7000010B5FFF79BFC01F052
:101430003FFD4FF4E134204605F050FA204605F018
:10144000E7F900F03DF8FFF7EFFA00F01DFF00F0BC
:10145000FDFEFFF72FFC02F07FFA04F059FA00F0CE
:10146000BBF900F0BFFA00F03BFA01F0B6FD01F065
:10147000B1FE01F091FFBDE8104001A002F09EBB5B
:1014800020486172647761726520696E6974204FCB
:101490004B0D0A0070B5094C0025C4F8A05204F5A4
:1014A000287401F04DFE6560022004F037F9012038
:1014B0002060022004F032F9256070BD00804042B7
:1014C0001CB50121022001F0A3FD4FF4407001245E
:1014D00000908DF8044000208DF8060002208DF861
:1014E000050069460448FFF7BFFE0448C0F8A04263
:1014F000C0F8A4421CBD000000040240008040422D
:1015000070B5094C0026C4F8A06204F5287401F0F7
:1015100017FE01256560022004F000F92560022015
:1015200004F0FCF8266070BD00804042094910B507
:101530000120C1F8BC02084CC4F8A802052004F53B
:101540002A7404F0EBF800202060BDE8104005206C
:1015500004F0E4B8008040420080414270B5094880
:101560000124C0F8BC42084D0020C5F8A80205209F
:1015700005F52A7504F0D2F82C60BDE8704005200E
:1015800004F0CCB8008040420080414210B5064CC7
:101590000120C4F8BC02052004F52F7404F0BEF845
:1015A0000020206010BD0000008040422DE9F0477F
:1015B0008146002401F0B2FD0025124E2F464FF067
:1015C0000108C6F8A072022004F0A8F8C6F8A082AC
:1015D0006006040ED6F8240208B1641CE4B20120AF
:1015E00004F09CF86D1CEDB2082DEAD3B9F1000FA0
:1015F00004D0FFF74FFF2046BDE8F087FFF780FFDC
:10160000F9E70000008040422DE9F041054601F075
:1016100097FD0F4E0027C6F8A0723C464FF0010818
:10162000E809C6F8A4026806050E022004F076F860
:10163000C6F8A082022004F071F8C6F8A072022059
:1016400004F06CF8641CE4B2082CE9D3BDE8F08126
:101650000080404270B501F073FD094C0120C4F8D0
:10166000A402C4F8A002042004F5287404F056F87B
:1016700000256560042004F051F8256070BD00006D
:101680000080404210B501F05BFD094C0020C4F819
:10169000A002C4F8A402042004F5287404F03EF863
:1016A000012020606060BDE81040042004F036B8DE
:1016B0000080404270B5002401F030FD0D4D012640
:1016C000C5F8A462304604F029F8C5F8A0620120EC
:1016D00004F024F807E0641CE4B2FA2C03D9FFF705
:1016E000D1FF012070BDD5F824020028F3D1C5F840
:1016F000A00270BD0080404210B5044C2068818873
:1017000003A002F05BFA2068808810BD6000002012
:1017100025640D0A0000000070B500252C46FFF777
:10172000EBFF0544052003F0DFFF641CE4B20A2C44
:10173000F5D300EE105AB2EE041AF8EE400A80EE2D
:10174000810ADFED040A9FED041A60EE200A80EEA4
:10175000810A70BD3333534000F07F4510B5FFF769
:10176000DBFFDFED150A30EEC01AC1EE000A10EE05
:10177000900AFEF771FF41EC100B9FED101B02F079
:1017800073FA9FED101B51EC100B53EC112BFEF76D
:1017900045FEFEF78DFF00EE100AB5EEC00AF1EE31
:1017A00010FA01D29FED090A094910EE100A884289
:1017B00001DD9FED080A10BD3333534000000040A7
:1017C0003333F33F000000000088C34000000000F6
:1017D00000401C4600401C46FFF726B9014800683F
:1017E000408870476000002070B500252C46FFF748
:1017F000F5FF0544052003F077FF641CE4B20A2CD2
:10180000F5D30A20B5FBF0F080B270BD10B500240E
:101810002DED048B9FED298AFFF7E0FF00EE100A03
:101820000520B8EE400A30EE088A03F05DFF641C24
:10183000E4B20A2CF0D3F2EE040AF1EE049A88EE38
:10184000200ADFED1F0A20EE290A20EE209A19EE69
:10185000100AFEF701FF9FED1B1B53EC112BFEF747
:10186000DDFD39EEC90A41EC180B10EE100AFEF747
:10187000F3FE53EC182BFEF743FEFEF719FF00EEC4
:10188000100A9FED121AC0EE010A10EE900AFEF740
:10189000E3FE41EC100B9FED0E1B02F0E5F99FED0E
:1018A0000E1B51EC100B53EC112BFEF7B7FDFEF79E
:1018B000FFFEBDEC048B00EE100A10BD000000001E
:1018C00000008039000000000000E03FE17AD440D1
:1018D00000000080C2F504C00000000000805B40F2
:1018E000FFF7A2B801480068008870476000002038
:1018F00010B500242DED048B9FED2E8AFFF7F2FF2B
:1019000000EE100A0520B8EE400A30EE088A03F017
:10191000EBFE641CE4B20A2CF0D3F2EE040A88EE6B
:10192000200A10EE100AFEF797FE9FED239B53EC62
:10193000192BFEF773FD9FED221B53EC112BFEF7C5
:101940006DFDFEF7B5FE0446FEF786FE9FED1E1BFD
:1019500053EC112BFEF762FD41EC180B2046FEF70D
:101960007BFE53EC192BFEF756FD53EC182BFEF7BC
:10197000C7FDFEF79DFE00EE900A9FED150A80EE72
:10198000801A11EE100AFEF767FE41EC100B9FED76
:10199000111B02F069F99FED111B51EC100B53EC78
:1019A000112BFEF73BFDFEF783FEBDEC048B00EE32
:1019B000100A10BD000000006666666666660A4092
:1019C000000000000000303F000000000000E03F89
:1019D000E17AD440000000A0999907C000000000FF
:1019E00000408F40FFF720B810B50446007B012867
:1019F00002D1206803F01EFF002020606060A0601C
:101A0000207310BD0246012002F07F030B70D20943
:101A100008D043F08003401C01F8013B0428F3DDAB
:101A20004FF0FF3070472DE9F04104460025006873
:101A30000F462E4610B10220207315E001202073BE
:101A4000084604F029F82060002808D0C4E901679E
:101A500002E0206846556D1CA068A842F9D8BDE890
:101A6000F081206846556D1CA068A842F9D86660D0
:101A70008842F4D22660F2E72DE9FF5F9A4693464A
:101A800000251046DDF844900E9F139CFEF7ECFBFA
:101A900006B2BBF1000F1FD006F111001FFA80F84B
:101AA00007B10225109868B145F00405FEF7DCFB8C
:101AB000C7B24846FEF7D8FBC11901EB0800001D6C
:101AC0001FFA80F80F9870B1012807D0022808D0BB
:101AD000022004B0BDE8F09F0120FAE745F00C05B4
:101AE00001E045F01405129808B145F0240500986E
:101AF00060B3019850B345F0C0050098FEF7B4FB01
:101B000007460198FEF7B0FB391801EB0800001DED
:101B100087B239462046FFF786FF2068C0B13946B4
:101B2000FEF76FFBD4E90030411C102261601A54AB
:101B3000D4E900010144781FFFF764FF00B20028D8
:101B400008DA2046FFF750FF0520C2E70320C0E770
:101B50000420BEE7616823680844411C61600022DC
:101B60001A54D4E90030421C042162601954D4E9AB
:101B70000070421C4D2362603B54D4E90070421C4B
:101B8000626051233B54D4E90030471C5422676003
:101B90001A54D4E90070431C63603A54D4E900300D
:101BA000421C62601954D4E90020411C6160155444
:101BB000D4E90030411C4FEA1A2261601A54D4E97A
:101BC0000030421C626003F800A0D4E90030411CE0
:101BD000320A61601A54D4E90020411C6160165435
:101BE000D4E90001084432465946FEF744FB6068D8
:101BF00030446060680736D5B9F1000F01D10FF2AB
:101C0000D8091098FEF730FB86B2D4E90030411CA9
:101C1000320A61601A54D4E90020411C61601654F4
:101C2000D4E90001084432461099FEF724FB6068AD
:101C3000304460604846FEF717FB86B2D4E90030B6
:101C4000411C320A61601A54D4E90020411C6160D1
:101C50001654D4E90001084432464946FEF70BFB0E
:101C6000606830446060280618D50098FEF7FCFADA
:101C700086B2D4E90030411C320A61601A54D4E9BA
:101C80000020411C61601654D4E90001084432462A
:101C90000099FEF7F0FA606830446060680618D575
:101CA0000198FEF7E1FA85B2D4E90030411C2A0A16
:101CB00061601A54D4E90020411C61601554D4E9D4
:101CC000000108442A460199FEF7D5FA60682844C5
:101CD00060600020FDE60000000000002DE9FF4FDD
:101CE00081B04FF000059046119C0F999A465FEA2B
:101CF000000BA9462A4608D1012005B0BDE8F08FA7
:101D0000232816D02B2814D06D1C0298405D002883
:101D1000F6D142F0300709B147F0010705EB0A069A
:101D20000E98B61C68B1012805D0022806D0032001
:101D3000E3E70220E1E747F0020701E047F004078C
:101D4000B61CB8F1000F37D098F80000022806D072
:101D5000711D2046FFF767FE2068B8B132E0002011
:101D600018F80010401C7D29FAD100F10409AAEBF3
:101D70000900311A00912046C91CFFF754FE206863
:101D800010B10099C91C03E02820B6E72920B4E768
:101D9000FEF737FAD4E90020411C61601754D4E9FA
:101DA000000101443046FFF72DFE00280EDA2046E0
:101DB000FFF71AFE0520A0E7711D2046FFF733FE4E
:101DC000206808B1711DE3E72A2096E7616823685F
:101DD0000844411C2A0A61601A54D4E90020411CBD
:101DE00061601554D4E9000108442A460299FEF7BF
:101DF00042FA6068284460600E9959B12368411C1A
:101E00004FEA1B2261601A54D4E90030421C626020
:101E100003F800B0B8F1000F0ED098F800000228C7
:101E2000D4E90001084409D052464146FEF7D0F9F2
:101E3000616801EB0A00606000205EE74A464146A7
:101E4000FEF7C6F9616801EB0900F4E730B591B01F
:101E50001546149C034600910AA2302104A801F003
:101E6000BDFE01200021CDE90204CDE900010A46B2
:101E70002B4604A90A20FFF731FF002800D00120DB
:101E800011B030BD247379732F25732F25732F74F0
:101E900068696E672F70726F70657274792F706FDA
:101EA000737400002DE9F0474FF00007089C984636
:101EB00016468A465FEA00093D460AD10120BDE880
:101EC000F08756F8250018B3FEF7CEF96D1C0744CD
:101ED000EDB24545F5D308EB4800C519E91D20468C
:101EE000AD1CFFF7A0FD2168A1B160688223421CF0
:101EF00062600B54D4E9000101442846FFF782FDDB
:101F000000B2002808DA2046FFF76EFD0420D6E76D
:101F10000220D4E70320D2E7616823680844411C0B
:101F20004FEA192261601A54D4E90030421C626001
:101F300003F80090002520E056F82500FEF794F9FC
:101F40000746020AD4E90030411C61601A54D4E902
:101F50000020411C61601754D4E90001084456F880
:101F600025103A46FEF787F9606823683844421C1A
:101F700062606D1C03F800A0EDB24545DCD3002083
:101F80009DE7F0B50446002001235D05106012E0D6
:101F9000275C166807F07F0707FB03661660265C60
:101FA000360601D4401CF0BDDB01AB4202D36FF01A
:101FB0000100F0BD401C8842EADB4FF0FF30F0BD6D
:101FC0004178022901D001207047817819B1012997
:101FD00001D0FF207047C078704700002DE9F84F0E
:101FE00005460078DDE90A7B00F00F0900200E4667
:101FF0000090C9F3410114468BF80010984609F08F
:10200000080A6A460421681CFFF7BBFF05440098D4
:102010006D1C022843D35FEAC97040D1288840BABA
:1020200020800099801C88427AD83EA1A81CFEF727
:10203000FFF810B10F20BDE8F88F9BF8000020B129
:1020400001282DD002286BD12AE0BAF1000F67D108
:102050002088401C03F020FD3060002860D02188DB
:10206000491CFEF7CEF82288A91C3068FEF7B0F8AC
:1020700020880099081A801E80B23880401C03F026
:102080000BFDC8F8000038B13988491CFEF7B9F8D3
:102090003A882088AD1C33E0306803F0CBFB3FE08A
:1020A0002088009A811C91423AD8A91C08440C99B6
:1020B000008840BA08800C9890B32088401C03F038
:1020C000EBFC306060B32188491CFEF79AF8228847
:1020D000A91C3068FEF77CF820880099081A001FB8
:1020E00080B23880401C03F0D7FCC8F800000028FC
:1020F000D2D03988491CFEF784F83A8820882D1DF3
:102100004119D8F80000FEF763F82B213046FEF79E
:10211000A1F828B923213046FEF79CF800288AD080
:10212000FF2088E72463726571000000417802296E
:1021300004D1817811B9C0780A2801D001207047F4
:102140000020704738B504460078FF210009421E80
:102150000E2A01D3084638BD0328FCD10020009088
:102160006A460421601CFFF70CFF20440099401CC4
:10217000022907D32278D20704D1028852BA921CCE
:102180008A4201D9FF2038BD04A1801CFEF750F817
:1021900008B10F2038BD032038BD000024637265EC
:1021A000710000000146FF208A78002A0BD1CA780E
:1021B000142A08D1087938B1012805D0022803D0A3
:1021C000802803D00220704700207047012070470C
:1021D000FEE7704730B50F23C27801780125FAB1C8
:1021E000144A126801F1E02102F4E062C2F5E062F3
:1021F000C2F30722C2F10404D3404278A24084789B
:102200001C401443220181F80024007800F01F01D3
:102210008D404009800000F1E020C0F8005130BD41
:1022200001F01F0085404809800000F1E020C0F85F
:10223000805130BD0CED00E00249084302490860BE
:10224000704700000000FA050CED00E070B50025B5
:10225000002105F1B00000F02AF90021084600F045
:1022600026F90021102000F022F90024012100208D
:1022700000F01DF9641CE4B2802CF7D36D1CEDB2A4
:10228000082DE5D370BD00001CB50121022000F02F
:10229000A7FE0121082000F0A3FE01248DF80640CE
:1022A00000208DF80700E00300908DF80440032023
:1022B0008DF8050069463F48FEF7D6FFA002009062
:1022C00069463D48FEF7D0FF3C48C0F8BC423C4858
:1022D000C0F8A842C82003F007FA0021AE2000F0A1
:1022E000E6F80021084600F0E2F80021102000F096
:1022F000DEF80021402000F0DAF80021B02000F0E4
:10230000D6F80021812000F0D2F80021FF2000F053
:10231000CEF80021A12000F0CAF80021A62000F08C
:10232000C6F80021A82000F0C2F800213F2000F0EC
:10233000BEF80021C82000F0BAF80021D32000F038
:10234000B6F80021084600F0B2F80021D52000F0D0
:10235000AEF80021802000F0AAF80021D82000F07B
:10236000A6F80021052000F0A2F80021D92000F0F5
:102370009EF80021F12000F09AF80021DA2000F008
:1023800096F80021122000F092F80021DB2000F0E6
:102390008EF80021302000F08AF800218D2000F016
:1023A00086F80021142000F082F80021AF2000F010
:1023B0007EF81CBD00040240000C02400080404238
:1023C0000080414210B50A460446002102F1B000E7
:1023D00000F06DF8102040EA1410002100F067F8BA
:1023E00004F00F00BDE81040002100F060B80000CC
:1023F0002DE9F041203A00240F468046D5B27F28CF
:1024000003D900208F1C8046FFB2102B394610D014
:10241000FFF7D8FF164905EB450001EB4005012108
:10242000285D00F044F8641CE4B2062CF7D3BDE844
:10243000F081FFF7C7FF0F4E04EB05100121305C60
:1024400000F035F8641CE4B2082CF5D37F1CF9B217
:102450004046FFF7B7FF002404EB0510304401218C
:10246000007A00F024F8641CE4B2082CF4D3DEE710
:10247000B9690008E16B00082DE9F041984617465C
:102480000E46044600250DE0434631462046FFF740
:10249000AFFF0834E4B2782C02D90024B61CF6B29F
:1024A0006D1CEDB27A5D002AEED1BDE8F081C0B2BC
:1024B00009B101F06CBB01F053BB0000F0B5E9B00D
:1024C0000024074664941CA016460D4600906594AF
:1024D00066941BA31DA28021679444A801F07EFB93
:1024E000CDE900563B4622A24FF4807104A801F0CA
:1024F00075FB04A8FDF7B8FE034664A80121CDE9E9
:102500000210009404AA019444A90A20FFF7E6FBF4
:1025100040B101461FA001F051FB20A001F04EFB8D
:1025200069B0F0BD659881B26498FEF769FE64A851
:10253000FFF75AFAF4E70000757365723100000086
:102540006B303038354D394F39340000247379738E
:102550002F25732F25732F7468696E672F70726F24
:1025600070657274792F7365745F7265706C790031
:102570007B226964223A222573222C22636F6465D0
:10258000223A25642C226D7367223A222573227D1C
:102590000000000025640D0A000000005741524E63
:1025A0003A20E58F91E980817365745F7265706C84
:1025B00079E5938DE5BA94E5A4B1E8B4A50D0A00D8
:1025C00000B595B000200F9010901190129001A8C6
:1025D000139010A0009011A313A2382101A801F0BC
:1025E000FDFA01A918A001F0E9FA0FA80090012353
:1025F00013AA00211420FFF755FC002807D11098DA
:1026000081B20F98FEF7FCFD0FA8FFF7EDF915B0AA
:1026100000BD000075736572310000006B3030380A
:10262000354D394F39340000247379732F25732FBA
:1026300025732F7468696E672F70726F706572747E
:10264000792F736574000000537562736372696259
:102650006520546F7069633A2025730D0A000000ED
:1026600030B58BB00024069407940894012527A365
:10267000284A29A12BA0099401F0A0FA06A8CDE9C7
:1026800004400120CDE900040302029403941FA238
:10269000204921A0FFF7F0F928B12EA001F08EFA11
:1026A0000BB0284630BD079881B20698FEF7A8FD0A
:1026B000FA20FEF795FC040022D001462EA001F07E
:1026C0007DFA2046FFF73EFD022819D12046FFF78C
:1026D00077FC062818D2DFE800F003080A0C0E1079
:1026E00027A001F06BFA00250AE02BA006E034A039
:1026F00004E03EA002E047A000E053A001F05EFA33
:1027000006A8FFF771F9CBE75DA0F7E7757365726F
:1027100031000000C88E00086B303038354D394F1D
:10272000393400004F6E654E65745F4465764C69C0
:102730006E6B0D0A50524F49443A2025732C0941C3
:102740005549463A2025732C44455649443A257349
:102750000D0A00005741524E3A094D5154545F50F2
:1027600061636B6574436F6E6E6563742046616967
:102770006C65640D0A00000025730D0A000000005E
:10278000546970733A09E8BF9EE68EA5E68890E525
:102790008A9F0D0A000000005741524E3A09E8BFD7
:1027A0009EE68EA5E5A4B1E8B4A5EFBC9AE58D8FB1
:1027B000E8AEAEE99499E8AFAF5C720A00000000A1
:1027C0005741524E3A09E8BF9EE68EA5E5A4B1E80E
:1027D000B4A5EFBC9AE99D9EE6B395E79A84636C35
:1027E00069656E7469640D0A000000005741524E1D
:1027F0003A09E8BF9EE68EA5E5A4B1E8B4A5EFBC12
:102800009AE69C8DE58AA1E599A8E5A4B1E8B4A56E
:102810000D0A00005741524E3A09E8BF9EE68EA5C8
:10282000E5A4B1E8B4A5EFBC9AE794A8E688B7E5BB
:10283000908DE68896E5AF86E7A081E99499E8AFA8
:10284000AF5C720A000000005741524E3A09E8BFDF
:102850009EE68EA5E5A4B1E8B4A5EFBC9AE99D9EDD
:10286000E6B395E993BEE68EA528E6AF94E5A68289
:10287000746F6B656EE99D9EE6B395290D0A0000A5
:102880004552523A09E8BF9EE68EA5E5A4B1E8B4E8
:10289000A5EFBC9AE69CAAE79FA5E99499E8AFAF9B
:1028A0005C720A0010B590B0044640216846FDF7FE
:1028B000A8FC5AA12046FDF7F2FC40216846FDF72E
:1028C000A0FC6048007808B15FA200E060A262A1AD
:1028D000684601F09DF969462046FDF79DFC4021C0
:1028E0006846FDF78EFC634864A10378624802786D
:1028F000684601F08DF969462046FDF78DFC4021C0
:102900006846FDF77EFC634864A10378624802785C
:10291000684601F07DF969462046FDF77DFC4021BF
:102920006846FDF76EFC63480068FDF795FE41ECD4
:10293000100B61A153EC102B684601F069F9694650
:102940002046FDF769FC40216846FDF75AFC6048C7
:1029500060A10288684601F05BF969462046FDF7F0
:102960005BFC40216846FDF74CFC60480068FDF7C1
:1029700073FE41EC100B5EA153EC102B684601F086
:1029800047F969462046FDF747FC40216846FDF7B8
:1029900038FC5D480068FDF75FFE41EC100B5BA161
:1029A00053EC102B684601F033F969462046FDF7D9
:1029B00033FC40216846FDF724FC5A485AA102889E
:1029C000684601F025F969462046FDF725FC4021BF
:1029D0006846FDF716FC594859A10288684601F07F
:1029E00017F969462046FDF717FC40216846FDF7B8
:1029F00008FC594859A10288684601F009F969465E
:102A00002046FDF709FC5BA12046FDF705FC2046AA
:102A1000FDF72AFC10B080B210BD00007B22696473
:102A2000223A22313233222C2276657273696F6E1C
:102A3000223A22312E30222C22706172616D732273
:102A40003A7B00005A000020747275650000000097
:102A500066616C7365000000226C6F636B5F73745A
:102A6000617465223A7B2276616C7565223A257322
:102A70007D2C000018000020170000202274656DD6
:102A800070223A7B2276616C7565223A25642E2588
:102A9000647D2C0016000020150000202268756D52
:102AA00069223A7B2276616C7565223A25642E256F
:102AB000647D2C00240000202270706D223A7B225D
:102AC00076616C7565223A252E31667D2C000000FA
:102AD0001E000020224C69676874223A7B227661CE
:102AE0006C7565223A25647D2C00000028000020CA
:102AF00022415149223A7B2276616C7565223A2542
:102B00002E31667D2C0000002C00002022434F3225
:102B1000223A7B2276616C7565223A252E31667DDC
:102B20002C0000002200002022414D54223A7B223A
:102B300076616C7565223A25647D2C0020000020AA
:102B4000227261696E223A7B2276616C7565223A47
:102B500025647D2C0000000098000020227365721F
:102B6000766F31223A7B2276616C7565223A256454
:102B70007D0000007D7D00002DE9F041064688B013
:102B8000002003900490ADF81400ADF818008DF803
:102B90001C0004463046FFF7D5FA0546032816D038
:102BA000042D6AD0092D70D04FF0FF34FEF70AFAD9
:102BB000641C09D00F2D01D0032D05D1049802F01B
:102BC00039FE039802F036FE08B0BDE8F081344AC1
:102BD00007A906A88DE8070003AB05AA04A930469B
:102BE000FFF7FCF9040048D1BDF818000090DDE9BA
:102BF0000331BDF814202BA000F0E0FF039802F091
:102C0000B1FC804636A102F091FC076935A0394637
:102C100000F0D4FF0A2002F067FD36A2C821384632
:102C2000FFF74CFC35A1404602F080FC074635A179
:102C300002F07CFC38B1C068012800D00020344983
:102C4000087000F085F933A1384602F06FFC88B1B6
:102C5000C16803290ED1808A304F80B26428388041
:102C600004D800F04FFB39882DA001E0014633A0C5
:102C700000F0A4FF404602F035FC3046FFF756FA5C
:102C8000002893D136A005E0FFE73046FFF78AFA27
:102C900018B13BA000F092FF88E740A0FAE70000DF
:102CA00058000020746F7069633A2025732C2074DB
:102CB0006F7069635F6C656E3A2025642C207061CB
:102CC000796C6F61643A2025732C207061796C6F88
:102CD00061645F6C656E3A2025640D0A0000000097
:102CE00069640000E68C87E4BBA449443A2025735C
:102CF0000D0A000073756363657373007061726120
:102D00006D7300006C6F636B5F73746174650000BA
:102D10005A000020736572766F310000A200002017
:102D2000536572766F312073657420746F2025644B
:102D300020646567726565730D0A00004572726FE5
:102D4000723A20496E76616C696420736572766FA1
:102D500020616E676C6520282564290D0A0000003B
:102D6000546970733A094D515454205075626C691E
:102D700073682053656E64204F4B0D0A00000000FD
:102D8000546970733A094D515454205375627363FA
:102D900072696265204572720D0A00005469707391
:102DA0003A094D51545420537562736372696265D8
:102DB000204F4B0D0A00000030B585B00020019077
:102DC00002900390044604904FF400711C48FDF7F4
:102DD00018FA1B48FFF766FD05B2194919A000F063
:102DE000EDFE29461AA000F0E9FE002D0BD001A847
:102DF000009000232A4619A11AA0FFF727F870B106
:102E00001BA000F0DBFE05B030BD015DDDE9012354
:102E1000D1540299491C641C24B2029100E0084874
:102E2000AC42F2DB029881B20198FEF7E9F918A0F2
:102E3000029900F0C3FE01A8FEF7D6FDE3E700000B
:102E4000180500202D2D2D25732D2D2D000000009F
:102E50002D2D2D25642D2D2D00000000757365721C
:102E6000310000006B303038354D394F39340000B7
:102E70005741524E3A094544505F4E657742756658
:102E8000666572204661696C65640D0A0000000089
:102E900053656E642025642042797465730D0A00C1
:102EA00010B5024800F066FBC0B210BD0040014002
:102EB00030B501218BB0080400F0AAF801211020E0
:102EC00000F08EF82020059002208DF818000024D4
:102ED0008DF81A4003208DF819001B4D8DF81B400A
:102EE00005A92846FEF7C0F9032205212846FEF76A
:102EF000F7F944F29F10ADF81C00C720134D08905D
:102F0000ADF82440ADF81E4007A9284600F078FB34
:102F10006020ADF800000120ADF802000294ADF889
:102F20000C406946284600F033FB0821284600F093
:102F30005FFB0121284600F006FB0121284600F036
:102F40000FFB0BB030BD00000010024000400140FC
:102F5000084810B50178084811B1012902D004E0F1
:102F6000052100E00F2100F049FBBDE810403220B0
:102F700002F0BABB5A00002000400140014601485F
:102F800000F03CBB004001407047000010B5044C0D
:102F90002068C18803A000F011FE2068C08810BD21
:102FA000600000205241494E3A25640D0A0000009D
:102FB00070B500252C46FFF7E9FF0544052002F017
:102FC00093FB641CE4B20A2CF5D30A20B5FBF0F0A5
:102FD000A0F6FF70404280B270BDFDF725BD000035
:102FE000044A0029116801D0014300E081431160C7
:102FF0007047000030380240044A0029116801D0AF
:10300000014300E0814311607047000040380240F6
:10301000044A0029116801D0014300E08143116096
:10302000704700004438024070B5204B1968204CAE
:1030300011F00C0104D06610042903D0082903D034
:1030400004601BE0066019E0184A121F1168C1F302
:103050008055116801F03F0115B1B6FBF1F101E0B7
:10306000B4FBF1F114681268C4F388146143C2F32D
:103070000142521C5200B1FBF2F1016019680F22AB
:1030800002EA11110B4A545C0168E14041601C687E
:10309000072505EA9424145D21FA04F484601B6872
:1030A00005EA5333D25CD140C16070BD083802409C
:1030B0000024F400380000207CB50446FDF7A4FE8F
:1030C000FDF728FE30BB00256E46FDF78FFE7055DC
:1030D0006D1CEDB2052DF8D39DF800009DF8015050
:1030E0009DF802109DF803304219CE1816449DF841
:1030F0000420964204D120706570A170E3702271A3
:1031000020786178E2780844A17811440844217954
:10311000884201D101207CBD00207CBD1CB501216D
:103120000220FFF775FF4FF40070009000208DF82B
:10313000040069460148FEF797F81CBD00040240F0
:103140001CB501210220FFF763FF4FF400700090CF
:1031500002208DF8050001208DF8040000208DF874
:10316000060069460148FEF77FF81CBD00040240D6
:103170002DE9F05F0025DFF85480DFF854B0824677
:103180002C46A9460126C4F1070006FA00F717EA03
:103190000A0F02D0C8F8946201E0C8F89492C8F807
:1031A0008C92012002F0BAFAC8F88C62012002F079
:1031B000B5FADBF8100208B12F43FDB2641CE4B28B
:1031C000082CE0D32846BDE8F09F00000080404274
:1031D000008041427CB501210C20FFF701FF002453
:1031E0004FF48070174D8DF8074000908DF8044023
:1031F00069462846FEF738F88DF806408DF80740F6
:1032000001208DF804004FF40460009002208DF836
:10321000050069462846FEF727F8C0200A4C0090B2
:1032200069462046FEF720F840212046FEF771F857
:1032300080212046FEF76BF840212846FEF769F80A
:103240007CBD000000080240000C024070470000F6
:103250000CB50022274900920192086840F48030A2
:1032600008604FF4A043086800F400300190009813
:10327000401C0090019810B900989842F3D108685A
:10328000800334D5012001901A484030026842F092
:10329000805202601848026842F4404202601548B9
:1032A000083002680260026842F40042026002686C
:1032B00042F4A0520260031F104A1A600A6842F0EA
:1032C00080720A600A689201FCD50D4940F20572CD
:1032D0000A60016821F003010160016841F0020108
:1032E00001600168C1F381010229FAD10CBD01928C
:1032F0000CBD000000380240007000400854400738
:10330000003C02402DE9F0410446652804D3BDE8A5
:10331000F0411AA000F052BC1C4E64274FF000058B
:103320003088A0420AD31DE000F068F8642002F063
:10333000DBF9294616A000F041FC6D1C3088201AEC
:1033400000EB4000400090FBF7F0A842ECDC12E0FC
:1033500000F086F8642002F0C7F929460CA000F0BE
:103360002DFC6D1C3088001B00EB4000400090FBE2
:10337000F7F0A842ECDC3480BDE8F081616E676C48
:1033800065206572726F720D0A00000098000020BF
:103390002564200D0A0000001CB501210220FFF762
:1033A0001FFE01210420FFF71BFE01211020FFF763
:1033B00017FE01208DF8040000208DF8060003217F
:1033C0008DF8051040248DF80700009469460848E0
:1033D000FDF74AFF694607480094FDF745FF4FF4A3
:1033E0002070009069460448FDF73EFF1CBD0000B8
:1033F0000004024000100240000802402DE9F0479E
:103400000024134FDFF84C80DFF84C90134E254614
:1034100040F21A4A385D00F00102C8F89822C0F361
:103420004002C9F89822C0F38001C6F8A412C0F384
:10343000C000C6F89C02641CE4B2032C00D900242E
:10344000022002F051F96D1C5545E3DBBDE8F08721
:103450009A000020000042420080404200004142A9
:103460002DE9F0470024134FDFF84C80DFF84C9033
:10347000134E254640F21A4A385D00F00102C8F8A2
:103480009822C0F34002C9F89822C0F38001C6F820
:10349000A412C0F3C000C6F89C02641CE4B2032C62
:1034A00000D90024022002F01FF96D1C5545E3DB12
:1034B000BDE8F0879E0000200000424200804042AC
:1034C0000000414270470000124810B5016841F405
:1034D000700101601048016841F0010101600E4A6D
:1034E00000210832116002680C4B1A400260031D73
:1034F0000B4A1A60026822F48022026006480C30EF
:103500000160FFF7A5FE03494FF0006080390860B5
:1035100010BD000088ED00E000380240FFFFF6FE1D
:103520001030002410B501218C07204600F024F84B
:10353000002807D003F048F92046BDE810400121DB
:1035400000F00BB810BD0029018802D041F08001C5
:1035500001E021F0800101807047C943018270477A
:103560000029018802D041F0010101E021F00101B0
:1035700001807047406B704702460020138A928991
:103580000B4202EA010202D0002A00D0012070475B
:1035900030B5028C22F001020284028C8388048BF5
:1035A00022F0020224F073050C882C438D89154308
:1035B0004A882A430C4DA84202D00C4DA8420DD196
:1035C00022F00805CA8923F440732A4322F0040537
:1035D0008A882A430D8A1D434B8A2B4383800483A8
:1035E00089684163028430BD00000140000401404D
:1035F000028B22F008020A4302837047416370473E
:1036000030B50288164C174DA0420DD0A8420BD001
:10361000B0F1804F08D0144B984205D0134B98421C
:1036200002D0134B984203D122F070034A881A4308
:10363000104B984206D0104B984203D022F44073AE
:103640000A891A4302804A68C2620A880285A04237
:1036500001D0A84201D1897A01860121818230BD41
:103660000000014000040140000400400008004048
:10367000000C0040001000400014004070B5154CD4
:1036800040F22551204600F065F800280ED0204673
:1036900000F0EEF8104AC1B21088030406D44404C6
:1036A0004FF0000306D50A2901D0138070BD40F405
:1036B00000400DE00D2909D0C0F30D04074D401C5A
:1036C00080B229551080C728EFD870BD40F48040E3
:1036D000108070BD001001405C0000201807002021
:1036E00010B50F4C40F22551204600F033F8002869
:1036F00014D00C4A1088B0F5806F01D300201080E0
:103700000748001D0088084B11885854491C118037
:103710002046BDE81040202100F008B810BD000090
:10372000004800405400002018010020C9430180D7
:1037300070470029818902D041F4005101E021F451
:103740000051818170470246002012880A4200D051
:103750000120704770B501F01F0501260024C1F358
:10376000421306FA05F2012B0FD0022B0FD0838AE9
:103770004FEA11210088134206FA01F600EA06001A
:1037800001D000B10124204670BD8389F0E7038A8F
:10379000EEE710B5C1F3421301F01F040121A1406F
:1037A000012B07D0022B07D01430002A026805D065
:1037B0000A4304E00C30F8E71030F6E78A43026071
:1037C00010BD00007FB50446008A0D46C98820F46C
:1037D000405001432182A08941F20C618843A988AD
:1037E0002A8911436A8902431143A181A08A20F4E6
:1037F0004071A8890843A0826846FFF715FC1A4863
:10380000844202D01948844201D1039800E0029812
:10381000A189090400EBC00101EB0010296801D562
:10382000490000E08900B0FBF1F06422B0FBF2F146
:1038300009010B096FF018056B4300EB8300A389A6
:103840001D044FF0320306D503EBC000B0FBF2F0CD
:1038500000F0070005E003EB0010B0FBF2F000F011
:103860000F00084320817FBD00100140001401407B
:103870008088C0F308007047C1F308018180704759
:1038800010B5084C607800280BD007A000F096F91E
:10389000FFF792FA09A000F091F9FDF793FB0020E1
:1038A000607010BDF00000204F6E654E65745F5370
:1038B000656E64446174610D0A00000073656E6496
:1038C0005F646174615F656E640A0000FEE72DE964
:1038D000F04116460D46074600240CE015F8011B82
:1038E0003846FFF7C9FF40213846FFF72CFF002874
:1038F000F9D0641CA4B2B442F0D3BDE8F08100005A
:1039000070B5044600F0A2F80A2001F007FF114D3F
:103910000020C5F8B802202005F52E75FFF728FC19
:10392000C4F30740FFF724FCC4F30720FFF720FC93
:10393000E0B2FFF71DFC0120286002E0012001F049
:10394000D3FE00F071F8C007F8D1BDE8704000F078
:1039500033B80000008040421CB501210220FFF76F
:103960003FFB002410208DF8074000908DF80440A4
:1039700069460E48FDF778FC8DF806408DF8074043
:1039800044F22800012400908DF8044002208DF8B4
:10399000050069460648FDF767FC0648C0F8B842CE
:1039A000C0F88C42C0F894421CBD0000000C0240DC
:1039B000000402400080404210B5064C0020C4F8CC
:1039C000B802042004F52E74FFF7D2FB012020601A
:1039D00010BD0000008040422DE9F041114F044627
:1039E000002015460E46C7F8B8020320FFF7C0FBBB
:1039F000C4F30740FFF7BCFBC4F30720FFF7B8FB95
:103A0000E0B2FFF7B5FB002404E0FF20FFF7B0FBB6
:103A10003055641CAC42F8D30120C7F8B802BDE8A9
:103A2000F08100000080404210B5074C0020C4F82F
:103A3000B802052004F52E74FFF79AFBFF20FFF76C
:103A400097FB0121216010BD0080404210B5064C5B
:103A50000020C4F8B802062004F52E74FFF788FB96
:103A60000120206010BD0000008040422DE9F0419F
:103A700015460E460446FF2A04D9BDE8F04119A0B8
:103A800000F09CB8FFF7E2FF0A2001F047FE194F53
:103A90000020C7F8B8020220FFF76AFBC4F3074012
:103AA000FFF766FBC4F30720FFF762FBE0B2FFF706
:103AB0005FFB002404E0305DFFF75AFB641CE4B2B6
:103AC000AC42F8D301E001F00FFEFFF7ADFFC007F5
:103AD0004FF00100F7D1C7F8B802BDE8F041FFF799
:103AE0006BBF00004F7574206F662072616E676552
:103AF000210A0000008040422DE9F047164D0026C3
:103B00008146C5F8BC62154FC7F8A862052001F0D0
:103B100005FE0024A8460125C4F1070105FA01F0BD
:103B200010EA090F02D0C7F8A85201E0C7F8A8624E
:103B3000052001F0F3FDC8F8BC52052001F0EEFDB0
:103B4000C8F8BC62052001F0E9FD641CE4B2082C51
:103B5000E2D3BDE8F087000000804042008041428F
:103B600010B50446FDF7E2FC7820FFF7C5FFFDF72E
:103B70000DFD0020FFF7C0FFFDF708FD2046FFF711
:103B8000BBFFFDF703FDBDE81040FDF7E7BC10B536
:103B90000446FDF7CBFC7820FFF7AEFFFDF7F6FCFF
:103BA0004020FFF7A9FFFDF7F1FC2046FFF7A4FF37
:103BB000FDF7ECFCBDE81040FDF7D0BC0FB4054BA1
:103BC00010B503A9044A029801F01EF810BC5DF874
:103BD00014FB000011580008080100200FB47CB548
:103BE0000C0009AD01D0611E00E00021CDE900010B
:103BF000064B6A462946089801F006F8002C02D0C8
:103C0000009A002111707CBC5DF814FB0F53000872
:103C10000FB4084B10B504A902AA039800F0F4FFF2
:103C2000044602A9002001F07DFB204610BC5DF88F
:103C300014FB00002553000803B4019841000098CC
:103C400050EAC12018BF04204A0D18BF40F00100FF
:103C500040F2FF72B2EB515F08BF40F00200012852
:103C600008BF052002B070472DE9F04D2DED040B83
:103C70002DED0E8B96B0DDE92550279CDDF890A048
:103C800025F0004624F00048BAF1000F14BF0121CE
:103C9000002101EB4502FC4953184A1093422AD3F4
:103CA000002814BF0123002303EB44030B44F7490E
:103CB0008B4220D358EA00019FEDF59B76D0DFF8C8
:103CC000D8B35D4503D1BAF1000F05D188E0BAF150
:103CD000000F08BF002100D0012101EB450111F5C3
:103CE000001F08D8002814BF0121002101EB440166
:103CF00011F5001F0BD99DED261B9DED240B16B071
:103D0000BDEC0E8B04B0BDE8F04D00F069BE00279D
:103D1000002DBCBFE149884521DAE1498845A8BFAB
:103D200002271CDAC3451ADCDE4901EB28511429AD
:103D300008DDC1F1340220FA02F101FA02F28242F6
:103D40000DD108E058B9C1F1140228FA02F101FAC4
:103D500002F2424503D101F00101C1F1020756EA26
:103D60000A0124D1002C22DA002D18BF022F01D025
:103D7000012F0AD0022000F07FFE16B0BDEC0E8BA2
:103D800004B0BDE8F04D00F013BE022000F074FE58
:103D900000F00EFE51EC100B81F0004141EC100BD5
:103DA00016B0BDEC0E8B04B0BDE8F08D18E09FEDB1
:103DB000BEAB9FEDBF8B002871D1B848804522D1A2
:103DC00005F1804010F5801008BFBAF1000F07D050
:103DD000B3450ADC002CA8BF9DED260BE0DA0DE010
:103DE000B0EE490AF0EE690ADAE7002C06DA9DED3A
:103DF000260B51EC100B81F000416FE0AE48784487
:103E000090ED000BCCE7D8454DD1002C48DA2EB10F
:103E100086423AD1BAF1000F42D126E0BAF1000F42
:103E200013D0022000F028FE00F0F6FD8DED020B0D
:103E30009DED240B8DED000B10EE900A039961F3BC
:103E40001E0003909DED020BAAE78DED02AB9DEDE8
:103E5000240B1AEE901A10EE900A8DED000B61F310
:103E60001E0003909DED020B9AE78DED028B9DEDF8
:103E7000240B18EE901A10EE900A8DED000B61F3F2
:103E80001E0003909DED020B8AE709DA9DED240BDD
:103E900051EC190B53EC102BFCF732FB1EE020E029
:103EA0009DED240B7CE786421BDAB4F1804F0DD0E8
:103EB000A4F10050B0F1FF5013D1002D11DB9DEDA6
:103EC000240B51EC100B02F048FC07E09DED240B95
:103ED00053EC102B51EC100B00F0C2BC41EC100B5A
:103EE0005EE79DED240B51EC100B01F085FCBAF15F
:103EF000000FCDE90E0142D19FED710B46B3A6F143
:103F0000E040B0F17F600CD05E4538D1002D00DA82
:103F1000A7B3022F0CBF01204FF0FF30FCF75FFB6F
:103F2000DCE7002D01DD002C0DDA002D01DD002C79
:103F30001FDB002D16DA002C14DB012F08BF9FEDCC
:103F4000620B3FF42DAFB0EE4A0AF0EE6A0A27E7A3
:103F5000022F18BF002D0CD0012F0AD1002DFFF623
:103F60001FAF06E0002DB8BF002C08DA012F3FF488
:103F700017AFB0EE480AF0EE680A11E71BE0012027
:103F800000EBE57050EA070115D0791EB0EE498AC2
:103F9000F0EE698A084308BF9FED4D8B4E4800251F
:103FA000804570DD4D494E48884514DDB0420DDB3B
:103FB000002C19DB2FE0012000F05EFD16B0BDECF7
:103FC0000E8B04B0BDE8F04D00F016BDB34502DC29
:103FD000002C09DC1FE0864202DA002C1BDA03E029
:103FE0005E452BDD002C16DD022000F045FD00F0C3
:103FF00013FD8DED020B53EC1A2B51EC180BFCF753
:104000000DFACDE900010399019861F31E000390B8
:104010009DED020BC4E6022000F02EFD00F00CFD29
:1040200010EE901A18EE900A8DED020B8DED008BBC
:1040300061F31E0003909DED020BB1E69DED0E0BAA
:1040400053EC192B51EC100BFCF7E2F99FED260B0A
:10405000CDE9080153EC102B9DED080B51EC100B32
:10406000FCF7DCF99FED221B53EC112BFCF7D3F985
:104070009DED081B53EC112BFCF7D0F99FED1E1B97
:1040800053EC112B3CE08CE0FFFF1F00FFFF0F0003
:10409000000000000000F03F0000F03F0000F07F53
:1040A0000000404301FCFFFF000000000000F07F23
:1040B0000000000000000000BE50000000000000F2
:1040C0000000000000000080000000000000F0FF81
:1040D000000000000000F0BF0000E0410000F043DD
:1040E000FFFFEF3F00000000000000000000D03F95
:1040F000555555555555D53F000000000000E03F8F
:10410000FCF789F99DED080B41EC1A0B53EC102BD1
:1041100051EC100BFCF782F953EC1A2BFCF77EF9EB
:1041200041EC1A0B9FEDFE0B53EC102B9DED080B91
:1041300051EC100BFCF772F941EC1B0B9FEDFA0BE5
:1041400051EC1A0B53EC102BFCF768F941EC1A0BED
:104150009FEDF70B53EC102B9DED080B51EC100B62
:10416000FCF75CF953EC1A2BFCF752F941EC1A0BF3
:1041700051EC1B0B53EC1A2BFCF7A9F80690CDE978
:1041800006519DED060B53EC1B2B51EC100BFCF76D
:104190003FF953EC1A2BFCF73EF941EC100B00F001
:1041A000A1B90020B6F5801F0EDA9FEDE30B53ECAA
:1041B000102B9DED0E0B51EC100BFCF72FF9CDE9F8
:1041C0000E016FF034000E4600EB2650A0F2FF37D0
:1041D000C6F31300DA4940F07F6646F04056884245
:1041E000D8BF002408DDD7498142C8BF012403DCC1
:1041F0000024A6F580167F1CD348784400EBC40049
:104200000F9690ED00CB9DED0E0B53EC1C2B51EC5B
:10421000100BFCF7FDF89DED0E0B41EC1B0B53EC66
:104220001C2B51EC100BFCF752F841EC100B51EC2D
:10423000190B53EC102BFCF763F941EC1D0B51ECFF
:104240001B0B53EC1D2BFCF7E9F841EC1A0BBF4894
:104250008DED10AB7844109590ED000B4FF00050B1
:1042600040EA660000EB84408DED080B00F500206D
:1042700009909DED080B53EC1C2B51EC100BFCF737
:10428000C7F89DED0E1B53EC112BFCF7C4F841EC65
:10429000100B53EC102B9DED100B51EC100BFCF799
:1042A000BDF89DED080B41EC1C0B53EC102B9DED64
:1042B000100B51EC100BFCF7B1F853EC1B2BFCF777
:1042C000AAF853EC1C2BFCF7A3F853EC1D2BFCF7BE
:1042D000A5F841EC1C0B53EC1A2B51EC1A0BFCF714
:1042E0009DF841EC1B0B9A480621B0EE4B0AF0EE0C
:1042F0006B0A784400F0E0FAB0EE401AF0EE601A73
:10430000B0EE41DAF0EE61DA53EC1B2B51EC1B0BF3
:10431000FCF784F853EC1D2BFCF780F89DED100B97
:1043200041EC1B0B53EC1A2B51EC100BFBF7CFFF9E
:1043300053EC1C2BFCF772F853EC1B2BFBF7C7FF5D
:104340009DED100B41EC1B0B53EC102B51EC100BA3
:10435000FCF764F841EC1D0B9FED7FEB53EC1E2B3B
:10436000FBF7B5FF53EC1B2BFBF7B1FF0890CDE932
:1043700008519DED080B53EC1E2B51EC100BFCF774
:1043800047F853EC1D2BFCF743F853EC1B2BFCF7C1
:1043900042F89DED080B41EC1D0B53EC102B9DEDED
:1043A000100B51EC100BFCF739F841EC1B0B53ECE4
:1043B0001A2B51EC1D0BFCF731F89DED080B41EC6D
:1043C0001A0B53EC102B51EC1C0BFCF727F853EC99
:1043D0001A2BFBF77CFF41EC1A0B51EC1B0B53EC37
:1043E0001A2BFBF774FF0C90CDE90C519DED0C0BD3
:1043F00053EC1B2B51EC100BFCF70AF853EC1A2B67
:10440000FCF709F841EC1B0B9FED550B53EC102BFF
:104410009DED0C0B51EC100BFCF700F841EC1A0B66
:104420009FED510B51EC1B0B53EC102BFBF7F6FFE0
:1044300041EC1B0B9FED4E0B53EC102B9DED0C0B29
:1044400051EC100BFBF7EAFF53EC1B2BFBF73FFF84
:1044500041EC100B4848784400EBC40090ED001B81
:1044600051EC100B53EC112BFBF731FF41EC1B0B04
:104470003846FCF7B4F8CDE9080153EC1B2B51EC9E
:104480001A0BFBF724FF41EC100B3C48784400EB7F
:10449000C40090ED00CB51EC100B53EC1C2BFBF740
:1044A00016FF9DED081B53EC112BFBF710FF069038
:1044B000CDE906519DED080B53EC102B9DED060B3D
:1044C00051EC100BFBF7A4FF53EC1C2BFBF7A0FFE8
:1044D00053EC1A2BFBF79CFF53EC1B2BFBF79BFFBA
:1044E00041EC100B9DED261B53EC102B8DED001BAA
:1044F00000959DED260B51EC100BFBF78FFF9DED0A
:10450000000B41EC1A0B53EC102B9DED260B51ECDC
:10451000100BFBF77DFF9DED061B53EC112B2FE0DD
:10452000000000604715F73FFE822B654715F73FF7
:1045300044DF5DF80BAE543E000000000000404335
:104540008E9803007AB60B003A4C0000684C0000CD
:10455000724B000000000000000000000000084056
:10456000000000E009C7EE3FFD033ADC09C7EE3F5B
:10457000F5015B14E02F3EBEFE490000B849000083
:10458000FBF74CFF53EC1A2BFBF7A1FE9DED060B3E
:1045900041EC1A0B53EC102B9DED000B51EC100B62
:1045A000FBF73CFFCDE90C019DED0C0B51EC1A0B18
:1045B00053EC102BFBF78BFECDE902010C46AA4908
:1045C0008C422FDB611A084318D19DED0C0B53EC84
:1045D000102B9DED020B51EC100BFBF719FF41EC7A
:1045E0001B0B9FEDA30B51EC1A0B53EC102BFBF79D
:1045F0006EFE53EC1B2BFCF743F82DD2022000F08B
:104600003BFA00F009FA10EE901A18EE900A8DEDC0
:10461000020B8DED008B61F31E0003909DED020BEC
:10462000FFF7BEBB944A24F00041914214D3934952
:10463000214408437FF4EFAC9DED0C0B53EC102BA1
:104640009DED020B51EC100BFBF7E2FE53EC1A2B25
:10465000FCF716F87FF6DFAC24F000408849894A61
:10466000002601EB205182422BDA481C4FF48011C6
:1046700021FA00F02044844AC0F30A517A44A1F29E
:10468000FF3192ED000B814A8DED080BCA4020EA04
:104690000202C0F3130040F48010C1F1140120FAAB
:1046A00001F60992002CB8BF76429DED080B53EC41
:1046B000102B9DED0C0B51EC100BFBF7A9FECDE977
:1046C0000C019DED0C0B51EC1A0B53EC102BFBF76E
:1046D000FEFD9FED6F0B0890CDE9085153EC102BB8
:1046E0009DED080B51EC100BFBF798FE41EC1B0BFA
:1046F0009FED690B53EC102B9DED080B51EC100B4B
:10470000FBF78CFE9DED0C0B41EC1C0B53EC102BBE
:104710009DED080B51EC100BFBF77AFE53EC1A2BB6
:10472000FBF779FE9FED5E1B53EC112BFBF776FE3A
:1047300053EC1C2BFBF7CBFD41EC1A0B51EC1B0B84
:1047400053EC1A2BFBF7C3FDCDE902019DED020BE3
:1047500053EC1B2B51EC100BFBF75AFE53EC1A2BAE
:10476000FBF759FE9DED020B41EC1A0B53EC102B9D
:1047700051EC100BFBF752FECDE908014A489DEDC4
:10478000080B0521784400F097F89DED081B51ECCB
:10479000100B53EC112BFBF741FE9DED021B53EC6C
:1047A000112BFBF738FECDE906019DED020B53EC12
:1047B0001A2B51EC100BFBF731FE53EC1A2BFBF7C5
:1047C00086FD9FED3B0B41EC1A0B53EC102B9DED3E
:1047D000060B51EC100BFBF71BFE9DED060B41EC9D
:1047E0001B0B53EC102B9DED020B51EC100BFBF748
:1047F00015FE53EC1B2BFBF783FE53EC1A2BFBF738
:1048000007FE9DED021B53EC112BFBF701FE53EC51
:10481000192BFBF700FECDE9020101EB0650011553
:104820000029C8BF039015DC9DED020B324651EC08
:10483000100BFCF765F8FFF7FFF9042808BF00F03C
:10484000FBF832469DED020B51EC100BFCF758F8CB
:10485000CDE902019DED020B51EC180B53EC102B2E
:10486000FBF7DCFDFFF73ABB0000904000000000C2
:10487000FE822B654715973C00CC904000346F3F7B
:1048800001FCFFFF0000E03F40480000FFFF0F0079
:1048900000000000432EE63F396CA80C615C20BE8E
:1048A000EF39FAFE422EE63F1047000000000000FC
:1048B000000000000000004070B504462DED028BA2
:1048C0004D1E00EBC500B0EE408AF0EE608A90ED20
:1048D000000B35F0060017D053EC182B51EC100BE1
:1048E000FBF79CFD41EC100B6D1E04EBC50090ED39
:1048F000001B51EC100B53EC112BFBF7E8FC41ECC7
:10490000100B35F00600E7D1022D36D0042D1CD057
:10491000062D1CBFBDEC028B70BD53EC182B51EC67
:10492000100BFBF77BFD94ED0A1B53EC112BFBF7EF
:10493000CEFC53EC182BFBF771FD94ED081B53ECE8
:10494000112BFBF7C4FC41EC100B53EC182B51EC72
:10495000100BFBF763FD94ED061B53EC112BFBF7DB
:10496000B6FC53EC182BFBF759FD94ED040B53ECFC
:10497000102BFBF7ACFC41EC100B53EC182B51EC5B
:10498000100BFBF74BFD94ED021B53EC112BFBF7C7
:104990009EFC53EC182BFBF741FD94ED001B53ECF0
:1049A000112BFBF794FCBDEC028B41EC100B70BD9E
:1049B0009FED070B10B553EC102B9FED070B51EC3F
:1049C000100BFBF79DFD41EC100B10BD000000002B
:1049D0000000000000000000000000000000F03FA8
:1049E00010B553EC112B51EC100BFBF770FC41ECA4
:1049F000100B10BD000000009FED050B10B553EC2F
:104A0000102B51EC100BFBF77BFD41EC100B10BD94
:104A100000000000000000009FED050B10B553ECF6
:104A2000102B51EC100BFBF7F9FC41EC100B10BDF7
:104A300000000000000000709FED050B10B553EC66
:104A4000102B51EC100BFBF7E9FC41EC100B10BDE7
:104A5000000000000000001002E008C8121F08C19A
:104A6000002AFAD170477047002001E001C1121FEF
:104A7000002AFBD170470000014908607047000020
:104A8000140100202DE9FF5F82B00021DDE9043030
:104A9000020DDDF840B0034318D044F61050A2F2E6
:104AA000FF3242431514119801281FD0A5EB0B00CB
:104AB000401C5FEA000A4FF000064E4FDFF83891C5
:104AC000B046504615D5CAF1000413E011980124F0
:104AD0004AA3012801D16FEA0B010298119AC0E99B
:104AE0000031C0E9024206B0BDE8F09FCBF1000002
:104AF000DFE704460021404A491842EB0450CDE963
:104B0000001012E0E00707D032463B4640464946D7
:104B1000FBF784FC8046894632463B4610461946E0
:104B2000FBF77CFC06460F466410002CEAD1DDE959
:104B30000401DDE90023BAF1000F06DAFBF76EFC91
:104B400042464B46FBF76AFC05E0FBF7D9FC4246C0
:104B50004B46FBF7D5FC04460E460022284BFBF7DC
:104B60008FFD03D84FF0FF30014607E00022254BB0
:104B700020463146FBF7ABFBFBF7D9FE102409E0DA
:104B8000002C0ADB0A220023FBF7C4FD039B303212
:104B90001A55641E50EA0102F2D1641C039AC4F152
:104BA00011031444119A012A03D0012208430DD1A4
:104BB0000AE0084304D000204FF0110B119072E777
:104BC000A3EB0B056D1E0DE05B4504DD4FF000020D
:104BD00005F1010504E003DA4FF00002A5F101053B
:104BE000002AECD002981199C0E90231C0E90045D1
:104BF00079E70000000014400000F03F30000000A2
:104C00000000F0430000E03F2DE9FF4F95B09A46C9
:104C1000884606460025EEE1252877D10024274660
:104C2000F94A0121039400E0044316F8013F203BB8
:104C300001FA03F01042F7D130782A2811D06FF032
:104C40002F033078A0F13002092A16D8039A44F0D5
:104C5000020402EB820203EB42021044761C039032
:104C6000EFE758F8042B0392002A03DA504244F489
:104C70000054039044F00204761C30782E2816D19C
:104C800016F8010F44F004042A280DD06FF02F020B
:104C90003078A0F13003092B09D807EB870302EB2A
:104CA0004303C718761CF3E758F8047B761C30786A
:104CB0006C280FD006DC4C2817D068280DD06A2845
:104CC00014D104E0742810D07A280FD10DE044F4F8
:104CD00000140AE044F4801401E044F440147278B3
:104CE000824202D104F58014761C761C3078662846
:104CF0000BD013DC582877D009DC002875D0452864
:104D0000F6D04628F4D047281AD193E118E063285A
:104D100035D0642879D0652812D18BE1702873D002
:104D200008DC6728F1D069286FD06E280DD06F2875
:104D300006D1ACE073282CD0752874D0782853D0D5
:104D40005246179990476D1C54E1C4F30250022853
:104D500009D003280DD0D8F8001004280DD00D601C
:104D600008F1040846E1D8F80010EA17C1E900523A
:104D7000F6E7D8F800100D80F2E70D70F0E718F8AC
:104D8000041B8DF8001000208DF80100EB46012077
:104D900003E058F804BB4FF0FF3061074FF000010B
:104DA00002D40DE009F101018946B9420FDA8145CB
:104DB000F8DB1BF809100029F4D108E009F1010122
:104DC00089468142FADB1BF809100029F6D10398C5
:104DD0005346A0EB090721463846179A00F080FA9F
:104DE000284400EB090507E044E008E10DE01BF86A
:104DF000010B524617999047B9F10109F7D2534672
:104E000021463846179AF2E039E00A21C4F30252EB
:104E10004FF0000B0091022A06D058F8040BC1177E
:104E2000032A09D00AE023E008F1070020F0070276
:104E3000F2E80201904605E000B2C117042A01D150
:104E400040B2C117002906DA0A460021404261EB50
:104E500002012D2202E0220504D52B228DF8042028
:104E6000012203E0E20701D02022F7E7914657E054
:104E70000A2100E010214FF0000B00910BE01021FF
:104E80004FF0000B44F004040827009103E00820D1
:104E90004FF0000B0090C4F30252022A05D058F8DC
:104EA000040B0021032A08D008E008F1070020F0D5
:104EB0000702F2E80201904603E080B2042A00D122
:104EC000C0B24FF0000922072AD53278702A07D0E5
:104ED000DDF800C08CF0100C5CEA0B0C05D00EE085
:104EE00040228DF80420012208E050EA010306D098
:104EF00030238DF804308DF8052002229146009B66
:104F000083F0080353EA0B030AD150EA010201D1EE
:104F1000620705D530228DF804204FF001097F1E6D
:104F20003278582A04D039A20C920CAA02920BE0D3
:104F30003BA2F9E75B46009AFBF7ECFB0C9B9B5C02
:104F4000029A521E0292137050EA0102F2D10298A4
:104F500004A9081A00F1200B600702D524F480345C
:104F600000E001275F4502DDA7EB0B0000E0002019
:104F700000EB0B01009003984944401A0390E003B2
:104F800006D453462146179A039800F0A9F9054420
:104F9000002706E001A85246C05D179990476D1C96
:104FA0007F1C4F45F6DBE0030CD553462146179A8C
:104FB000039800F095F9054404E030205246179913
:104FC00090476D1C0099481E00900029F5DC08E010
:104FD0000298029952460078491C0291179990470D
:104FE0006D1CBBF10001ABF1010BF1DC5BE100F0EA
:104FF00065F90544761C307800287FF40DAE19B0B1
:105000002846BDE8F08F0000092801003031323316
:1050100034353637383961626364656600000000F4
:1050200030313233343536373839414243444546DE
:1050300000000000600700D4062708F1070020F0F8
:105040000700F0E80223804603F0004C5FEA0C0002
:1050500001D097A009E0200501D596A005E0E00762
:1050600001D095A001E0AFF24C001390307823F00E
:10507000004365280CD006DC452809D046281DD001
:1050800047287FD13BE0662818D067287AD136E0E0
:105090000021112F01DB112000E0781CCDE9000177
:1050A00004A90CA8FFF7EEFCDDE90D010C9A4FF006
:1050B000000B07F10109109200914EE04FF0004003
:1050C0000097CDE9011004A90CA8FFF7DBFCDDE98E
:1050D0000D020C9B0F994FF0000B9146109300921C
:1050E00011B9791C00EB0109B7EB090003D4C0F139
:1050F000FF3B07F10109A9EB0700019042E0012FF6
:1051000000DA01270021112F01DD112000E03846CF
:10511000CDE9000104A90CA8FFF7B4FCDDE90D01FD
:105120000C9A00914FF0000BB946109221070FD452
:10513000009A4A4503DA914601E0A9F10109B9F163
:10514000010F05DD109AA9F10101515C3029F4D05D
:10515000B84202DA10F1040F03DA0121CDE901109F
:1051600010E0002803DC8344A9EB000102E0411CAD
:10517000494500DD8946A0EB0B00401C01904FF033
:1051800000400290200705D40198484502DB4FF00B
:10519000FF30019000208DF84B0002980DF14B0775
:1051A000B0F1004F25D002200C902B200D900298DA
:1051B00000280CDA404202902D200D9007E00A21D1
:1051C0000298FBF791FA3031029007F8011D0C9913
:1051D000481E0C900029F2DC02980028EFD1791EBD
:1051E0000D980870307800F0200040F0450007F876
:1051F000020D11A8C01BC01D02901398007800B1C9
:10520000012000EB0901019801EBE07102980144D3
:105210000398401A401E0390E00306D453462146EB
:10522000179A039800F05CF805441398007818B1B9
:105230005246179990476D1CE00323D553462146EB
:10524000179A039800F04CF805441BE0BBF1000FDF
:1052500007DB0098584504DD1098179910F80B00EB
:1052600001E0179930205246904701980BF1010B4D
:10527000401E05F10105019004D12E2052461799D8
:1052800090476D1CB9F10001A9F10109DEDC05E0D0
:1052900017F8010B5246179990476D1C0299481E4A
:1052A00002900029F4DC53462146179A03989EE6A3
:1052B0002D0000002B000000200000002DE9F0412F
:1052C000044600251E461746880404D405E03946E6
:1052D0002020B0476D1C641EF9D52846BDE8F0813A
:1052E0002DE9F041044600251E469046C80301D52D
:1052F000302700E02027880404D505E041463846E1
:10530000B0476D1C641EF9D52846BDE8F0814A6897
:10531000002A06D00A68531C0B6010704868401EB3
:10532000486070470A68531C0B601070704700009B
:105330002DE9F04190462DED048B0D46064601F017
:105340006FF92F4CA06A00F0B3F90746E06A00F04D
:105350005FF904463846FBF742F99FED2A8B53EC80
:10536000182BFBF7CDF841EC190B2046FBF748F959
:1053700053EC182BFBF7C4F841EC180B51EC190B4C
:10538000FBF796F9286051EC180BFBF791F900EE4A
:10539000100A86ED000AB5EEC00AF1EE10FA26DD1D
:1053A0009FED1A1AC1EE000A10EE900AFBF754F9AD
:1053B00041EC100B9FED161BFEF756FC9FED161BE4
:1053C00051EC100B53EC112BFBF722F89FED141B43
:1053D00053EC112BFBF722F89FED131B53EC112B11
:1053E000FBF78EF8FBF764F900EE100A01E09FED81
:1053F000100A88ED000ABDEC048BBDE8F0810000C6
:10540000640000200000000000005940CDEC7D4405
:1054100028610C878A5AC83F000000000000F03F56
:105420000000006066A2724000000080BE9F7A3FCC
:105430000000000010B5FCF743F8142000F054F908
:10544000BDE8104001F06CB92DE9F047244C002074
:105450008146A08004F10E0504F12806A71D04F181
:10546000180880B237F8101058F82000FBF74FFFEB
:10547000142000F039F94846A4F8029080B235F8BB
:10548000101056F82000FBF73BFFA8B16088401CC5
:1054900080B260800428F1D3A08837F8101058F843
:1054A0002000FBF736FFA088401C80B2A0800428B3
:1054B000D7D31120BDE8F0870948A188383000EB28
:1054C00081006188405C2070608835F8101056F8C3
:1054D0002000FBF715FF0028F6D02078EAE700004F
:1054E000A800002070B504460F4E19E0A089256879
:1054F000C0050AD4A06820B1FFF7F4FFA089C00559
:1055000003D4206908B171688847A089800503D455
:10551000206A08B1716888477168204688472C4620
:10552000002CE3D170BD00004800002070B50D468E
:10553000846800E024682CB12946206A00F046F80F
:105540000028F7D1204670BD054910B5096828200C
:105550008847040002D02821FAF753FE204610BDE8
:105560004800002000221146AFF300802DE9F041F1
:1055700090460E460446FFF7E7FF134F05004FF035
:105580000000B86015D0204601F0DDF8014628463D
:1055900000F0C8FE04000FD0B8F1000F10D0204674
:1055A00001F0D1F80446007850B12846FFF79AFF81
:1055B000BC600020BDE8F0812846FFF793FFF8E7C4
:1055C00006B134602846F5E74800002070B50400B5
:1055D0000D4601D00DB108E009B1012070BD0020D9
:1055E00070BD0028FCD0641C6D1C2078FAF7EAFD21
:1055F00006462878FAF7E6FD86422078F1D0FAF7D9
:10560000E1FD04462878FAF7DDFD201A70BD0000A0
:1056100030B52549254B0A6BB1F9145003EB6202F2
:1056200093105B43DC126C43B1F912505B1355438A
:1056300004EB45040D8AA41004EB0544B1F90E50A7
:105640006B43DD10B1F90C30534305EB6302921448
:105650004B8902F500425A43D2130DD0C0F5801099
:10566000A0EB243040F635435843B0F1004F05D24B
:105670004000B0FBF2F004E0002030BDB0FBF2F0DF
:105680004000C2085243B1F91A30520B5A43B1F9E3
:105690001840121383086343B1F9161002EB63320A
:1056A000114400EB211030BD640000200006FFFF14
:1056B0000C4A10B59188C310A3EB4103C1EB201035
:1056C000B2F906404043B2F9081063430013DB12FD
:1056D000484303EBA030106300EB800080300012E1
:1056E00010BD00006400002070B50B4A00244FF08C
:1056F000E0214FF47A750526136808E0B3FBF5F254
:10570000521E4A618C610E610A69D203FCD5401EAB
:105710000C61F3D270BD00000000002010B54FF006
:10572000E02100220A61084B084C1B68B3FBF4F32C
:1057300043435B1E4B618A61052008610869C00311
:10574000FCD50A6110BD00000000002040420F009F
:105750001CB54FF40070009000208DF8040001216A
:105760008DF8061003218DF805108DF807006946A5
:105770000148FBF779FD1CBD001002401CB54FF439
:105780000070009001208DF804008DF806000320C1
:105790008DF8050000208DF8070069460148FBF7E9
:1057A00063FD1CBD0010024010B5124C00F014FE49
:1057B00000F06EFA00F060FE207023280CD02A283A
:1057C000F4D100F0B9FA00F057FE00F02FFE0128E6
:1057D0000DD000F00CFFE9E700F028FE012802D010
:1057E00000F0D0FEE2E7BDE8104000F0A9BE00F0F6
:1057F000E7FEDBE71400002082B0CDE9000121F0D4
:10580000004001909DED000B02B051EC100B704771
:1058100070B5074D044681B22846FEF72DF8802169
:105820002846FDF790FF0028F9D0204670BD000003
:105830000010014010B5002821D0114B0022001F9C
:10584000196803E0814203D80A4649680029F9D162
:1058500052B11368841A9C4204D100681844106045
:10586000104602E0506000E0186039B102680B1A7F
:10587000934203D10B681A4402604968416010BD2D
:105880000C0100202DE9F0411D46164688460746CA
:105890000024FBF7DFFE3846FBF7B6FEFBF70AFFF6
:1058A0004046FBF7B1FEFBF705FFFBF7D3FE47F0E1
:1058B0000100FBF7A9FEFBF7FDFE771E08E0BC42E6
:1058C00001D1002000E00120FBF770FE2855641C88
:1058D000B442F4DBBDE8F041FBF7D4BE70B5154629
:1058E0000E460446FBF7B6FE2046FBF78DFEFBF79F
:1058F000E1FE3046FBF788FEFBF7DCFE2846FBF7AF
:1059000083FEFBF7D7FEBDE87040FBF7BBBE00008F
:105910002DE9FC4101210846FDF762FB012102202F
:10592000FDF75EFB01210420FDF75AFB0121102049
:10593000FDF756FB01214020FDF752FB01248DF8B5
:10594000044000250F208DF806500326104F0090CC
:105950008DF805608DF8074069463846FBF784FCF2
:10596000F0208DF8045000908DF805608DF8074008
:1059700069463846FBF778FC0648C0F88042C0F814
:105980008442C0F88842C0F88C42BDE8FC81000027
:1059900000000240000040424FF4A060FCF74CFCC5
:1059A000FBF742FDFFF746FD0F20FDF7E7FA0A205F
:1059B000FFF79AFE10231DA201210A20FCF75CFDCF
:1059C000FBF73EFBFCF742FC1CA0FEF7F7F81023A8
:1059D0001EA201210A20FCF74FFD102320A2012165
:1059E0000A20FCF749FDFCF731FC4FF4FA7402E0A1
:1059F0002046FFF779FEFCF733FE0028F8D11CA003
:105A0000FEF7DCF810231FA201210A20FCF734FD69
:105A1000FCF7D6FD1F4CFFF717FD2070412801D180
:105A2000FFF7C2FE00F0D0FEF5E700004553503806
:105A30003236365F494E49542E2E2E0038323636D5
:105A40005F494E49545F454E440A00004553503863
:105A50003236365F494E49545F454E4400000000DF
:105A60004C696E6B206F6E656E65742E2E2E000075
:105A7000E68EA5E585A56F6E656E6574E68890E592
:105A80008A9F00004C696E6B206F6E656E65742096
:105A90004143000014000020F0B50B30154D20F0FC
:105AA00007010024144A0FE003688B420BD38B429A
:105AB00005D95E1A43184768C3E9006700E04368E8
:105AC000136002C004E0021D10680028ECD12046DB
:105AD000002802D1286808B10020F0BD064A074816
